:020000022000DC
:10700000009F00200DEA0200D3040500E1E9020020
:10701000E1E90200E1E90200E1E90200000000000C
:1070200000000000000000000000000031EB020042
:10703000E1E90200000000009DEA0200E1E902002F
:1070400051ED0200CD33040051ED020051ED02007C
:1070500051ED020051ED020051ED020051ED020030
:1070600051ED020051ED020051ED020051ED020020
:1070700051ED020051ED020051ED020051ED020010
:1070800051ED020051ED020051ED020051ED020000
:1070900051ED020051ED020051ED020051ED0200F0
:1070A00051ED020051ED020051ED020051ED0200E0
:1070B00051ED020051ED020051ED020051ED0200D0
:1070C00051ED020051ED020051ED020051ED0200C0
:1070D00051ED020051ED020051ED020051ED0200B0
:1070E00051ED020051ED020051ED020051ED0200A0
:1070F00051ED020051ED020051ED020051ED020090
:1071000053B94AB9002908BF00281CBF4FF0FF310E
:107110004FF0FF3000F00CB8ADF1080C6DE904CE73
:1071200000F008F8DDF804E0DDE9022304B0704760
:10713000704700BF2DE9F04786468C460846089EFA
:10714000154674461946002B40F0C2808542B2FABB
:1071500082F245D94AB1C2F1200300FA02FC2EFAAC
:1071600003F3954043EA0C0C94404FEA154EA8B245
:10717000BCFBFEF8230C0EFB18CC08FB00F943EA1D
:107180000C43994528D9EB1808F1FF3704D29945EB
:1071900002D9A8F102072B44A3EB0903A4B2B3FB65
:1071A000FEFC0EFB1C330CFB00F044EA0344A0423F
:1071B00014D92C190CF1FF3304D2A04202D9ACF13E
:1071C00002032C44241A43EA07401EB1D440002392
:1071D00034607360BDE8F0874746DDE76346F1E75A
:1071E00092BB431B01214FEA154EAFB2B3FBFEFC2D
:1071F000200C0EFB1C330CFB07F840EA03439845B8
:1072000062D9EB180CF1FF3004D2984502D9ACF1E9
:1072100002002B44A3EB0803A4B2B3FBFEFC0EFB5D
:107220001C330CFB07F744EA0344A7424ED92C1940
:107230000CF1FF3304D2A74202D9ACF102032C4473
:10724000E41B43EA0040C0E7C2F1200320FA03F147
:10725000954090402EFA03F303434FEA154EAFB228
:10726000B1FBFEFC0EFB1C10190C0CFB07F841EAED
:107270000041884504FA02F422D969180CF1FF3064
:1072800004D2884502D9ACF102002944A1EB0801DF
:107290009BB2B1FBFEFC0EFB1C110CFB07F743EA93
:1072A00001439F420ED9EB180CF1FF3104D29F42EB
:1072B00002D9ACF102012B44DB1B41EA004192E709
:1072C0006046E3E76146F7E76046A3E76346B7E752
:1072D000834206D916B9002108467BE7C6E900E0DB
:1072E000F9E7B3FA83F78FB9834201D3724508D81F
:1072F000BEEB020460EB030301209C461EB9002193
:1073000068E73846FAE7C6E9004CF8E7C7F1200C11
:10731000BB4022FA0CF41C432EFA0CF120FA0CF3B9
:10732000B84001434FEA14490EFA07F5B3FBF9F8E8
:107330001FFA84FE09FB18300B0C08FB0EFA43EA17
:1073400000439A4502FA07F240D9E31808F1FF30EA
:1073500004D29A4502D9A8F102002344A3EB0A0300
:1073600089B2B3FBF9F809FB183308FB0EFE41EABA
:1073700003418E452CD9611808F1FF3304D28E45A4
:1073800002D9A8F10203214443EA0040A0FB02987D
:10739000A1EB0E014145CE46434602D306D14D45F1
:1073A00004D2B9EB020E68EB04030138002EA6D01C
:1073B000B5EB0E0261EB030101FA0CFC22FA07F3B4
:1073C0004CEA0303F940C6E9003198E74046C5E7B7
:1073D0004346D9E710F8012B11F8013B012A28BFD9
:1073E0009A42F7D0D01A7047034611F8012B03F8E0
:1073F000012B002AF9D17047034613F8012B002A0C
:10740000FBD1181A013870472DE9F041494D88B079
:10741000D5F85C31996811F0010100AF22D107F174
:10742000080240F6034009F0C7F8044600287BD163
:10743000B868C3681B789BB9BFF35B8FD5F8D430AD
:10744000BFF35B8F05F1D40203F00903BFF35B8F39
:1074500052E8001F42E80034002CF9D1BFF35B8FE3
:107460001EF0E0FE07F10802002141F2030009F0DE
:10747000A3F80446002857D1BB682F4EDA68D2F82B
:107480000100D2F8051003C618461EF0CBFE2146B7
:1074900007F1080241F2010009F08EF804460028C5
:1074A00042D1B868C3685A7885F870205A88A5F820
:1074B00072201A7985F87120B3F80720A5F8742096
:1074C000B3F80530A5F876301EF0ACFE214607F182
:1074D000080241F2020009F06FF8044620BBD7F819
:1074E0000880D8F80C20531C41321868596834467B
:1074F00003C4083393422646F7D1104829F088F890
:1075000040461EF08FFE95F87C305A061CD40C4B7A
:10751000FB6102230B48BB6107F118024FF4825153
:107520006FF0120429F05FF920462037BD46BDE810
:10753000F08100BFB00000202801002030010020B1
:10754000288805006447050007F10802002142F27F
:10755000030009F031F804460028E5D1BB68AC4EC1
:10756000DA68D2F80100D2F8051003C618461EF0FA
:1075700059FE214607F1080242F2020009F01CF808
:1075800004460028D0D1BC68E368B3F8012091B26A
:1075900049B1D97839B1A5F80421DA78114606F154
:1075A00028002CF03CF820461EF03CFE95F87C604C
:1075B00016F0200618D1022140F66D4008F0B6FE04
:1075C0000446002800F0CD8002210C302BF06DF92C
:1075D0000123037046702146324640F66D4008F0A4
:1075E000EBFF044600289FD195F89C301B0713D56C
:1075F00007F10802002142F21C0008F0DDFF0446FA
:10760000002891D1B868C368D3F80120D3F80530B9
:10761000C5E938231EF006FE95F8D8309E0622D51F
:10762000391DB81C09F04AF8044600287FF47CAFE5
:10763000042142F2240008F079FE0646002800F0FA
:10764000908004210C302BF030F97B880380BB88BC
:1076500043802246314642F2240008F0ADFF044642
:1076600000287FF461AF95F8D8305C0611D507F19A
:107670000802002142F22A0008F09EFF044600287A
:107680007FF452AFB868C3685B7885F820311EF08C
:10769000C9FD082142F2010008F048FE0446002816
:1076A0005FD008210C302BF000F995F8D81011F0BC
:1076B000400F024640F2022308BF032388074CBF55
:1076C00043F02C0043F00C008B0695F8D93048BFEE
:1076D00040F0400013F0090F95F8A23018BF40F4B5
:1076E000006003F00603CE0748BF40F01000062BF1
:1076F00008BF40F4C070002129F084F82146002220
:1077000042F2010008F058FF044600287FF40CAF55
:1077100095F87C30B5F80411980625D4D1B907F155
:10772000080241F2050008F047FF044600287FF4F4
:10773000FBAEB5F80431BC684BB9E368B3F801207F
:10774000A5F804219A88334811462BF068FF20469B
:107750001EF068FD082140F6014008F0E7FD0446F0
:1077600090B96FF06804DFE60029F3D12A4BFB6182
:1077700002232A48BB6107F118024FF4825129F015
:1077800032F86FF00404CFE608210C302BF08DF8AE
:1077900095F8D830D907024653BF4FF000511AA1CF
:1077A000D1E900011E4829F02DF82146002240F6BB
:1077B000014008F001FF044600287FF4B5AE014601
:1077C0003A1D4FF6014008F0F7FE68B3154BFB6118
:1077D00002231248BB6107F118024FF4845129F0CB
:1077E00002F829F014FA044600287FF49DAE0BF04D
:1077F0009FFC044600287FF497AE09F031FC044654
:1078000092E600BFAFF30080908800020080002065
:1078100088010020B80100204C880500644705005D
:10782000108800026F8805007B68DC68B4F80130BE
:10783000032B96BF434A444952F823106D468AB041
:107840006A464248D3614FF400731384404BC2E947
:10785000050142F8103F3F484FF4135128F0C3FF91
:10786000B4F80120B4F80330022AAD4648D1032B06
:1078700046D8394A52F823106D468AB06A463748CE
:10788000D3614FF400731384314BC2E9050142F810
:10789000103F4FF413512F4828F0A5FF6379A679C4
:1078A000D4F80900032BAD4698BF2D4AB4F8075011
:1078B00094BF52F8231024496C468CB06A46DFF816
:1078C000B4C0C2E907364FF400739385254BC2E973
:1078D00005C1C2E909504FF4735142F8103F1D48E9
:1078E00028F081FFA54678681EF09CFC3A1D002117
:1078F0004FF6024008F060FE044618B11A4B66E7E6
:107900001149B9E77868194DC368B3F80130A5F893
:10791000C1301EF087FC95F8C1305B077FF561AF81
:107920003A1D21464FF6034008F046FE08B1104BC1
:107930004DE77868C3685B7885F8C0301EF072FC4C
:107940004FE700BFC44F0500AB82050093880500D8
:107950000400000164470500B44F0500AC88050031
:10796000A44F050007000001F1880500B0000020C9
:107970001A890500C48805002DE9F843D0E90C35C3
:10798000D0F82C805C193034A0450F46164619D823
:107990001D4DA3FB05011AA3D3E90023FFF7B0FB9C
:1079A0000346A4EB0800A0FB050123F07F4414A3C9
:1079B000D3E90023FFF7A4FB20F07F403C60306058
:1079C000BDE8F883DFF840900DA3D3E90023A8FBBE
:1079D0000901FFF795FB044605F1300008A3D3E940
:1079E0000023A0FB0901FFF78BFB24F07F4420F06C
:1079F0007F403C603060BDE8F88300BFAFF300809B
:107A00008D49FD1A0700000000CA9A3B00000000E3
:107A10009FED097B0E4B0F4A0F4983ED007B9FEDD5
:107A2000087B82ED007B9FED087B0C4B002281EDF3
:107A3000007B1A6013F0D4B8FFFFFFFFFF1F0000A8
:107A400000000000000000001F0000000000000017
:107A500030020020A83B0020280200201450002003
:107A6000002800F046812DE9F04FC94C94F86A20B7
:107A700012F001058DB040F0788194F82500FF23C5
:107A800000F0030084F826301BF08AF894F86A00AE
:107A9000420727D494F8292094F8353004EB820269
:107AA00004EB8303D66AD3F8388086B1B8483146F0
:107AB00014F0F2FE33785B0605D5062110F0D6F8F7
:107AC000002800F05481B248414614F0E5FE3378B6
:107AD00013F00E0F40F09E80236A93B10C200DB07E
:107AE000BDE8F08F2A4604F16B01C0F3C0001BF023
:107AF000C7F9FF2884F82600CCD028461BF06AF886
:107B0000C8E712F071F98146002800F0548112F0A4
:107B100077F98246002800F04B8115F0ABF9054655
:107B2000002800F04A81D0F888004FF6FF732B85BB
:107B300005F11C0B002800F0208105F17C0205F105
:107B4000780110F09FF8B5F8763023F4EF6323F056
:107B5000070343F4887343F00103A5F8763095F8E2
:107B6000393003F03F0363F07F0385F8393095F82F
:107B70008E3023F0070385F88E3095F83C3023F0E3
:107B80000703002785F83C304FF4C023C5F888313F
:107B90002846C5E91277C5F88870A5F88C706F86FD
:107BA000C5F82E7085F83B702F65A5F88E71A5F885
:107BB000847117F0D1FA85F85071C5F8549115F019
:107BC000E5FB95F8943160F3020385F8943115F0E4
:107BD000E3FB95F8943160F3C50385F8943195F88B
:107BE000803167F3410385F880310121284615F083
:107BF000EFFF05F1D40017F069F8C4E9189AC4F84A
:107C000020B0C5E905772F70ED611CF07FF90028E1
:107C100040F0AF8094F824300121C3F342030DF10A
:107C20002B008DF82B3010F0CBF90246002862D0E3
:107C300098F80110304614F0F1FB31235549A36048
:107C4000554BB4F86870A0FB01010025C01841F144
:107C500007014DA3D3E90023C4E9055525706560EC
:107C6000E560FFF74DFA206111F0BCFB00F1090857
:107C70003FB9357805F00F05A5F10105B5FA85F591
:107C80006D0994F82400236965F3000010F00105E4
:107C900084F8240036D0414A099200201060022561
:107CA0003F4A404F04930BAE019305920321CDE967
:107CB0000200069443460090089607972A460B95C3
:107CC00011F092FA314612F055F9A0B936490591F2
:107CD0004AF2D8330093CDE90300CDE901000797BC
:107CE000089606944346012203210B9511F060FA91
:107CF0002EE014F0E3BA236A002B3FF4EFAE14F049
:107D00009BFAEBE6254A2948049303F247130694AD
:107D1000029591211360A7FB000301FB0731214B62
:107D200007931F4B05934FF6FF73099202270393A6
:107D30000BAE15A3D3E900230B970896FFF7E0F9E4
:107D40004346CDE900503A462846032111F04CFA4B
:107D5000314612F00FF90028CDD194F86A30012095
:107D6000034384F86A301AF0FDFE0020B7E61220C3
:107D7000B5E614F061FA0320B1E605F18000C5F81C
:107D80008800DAE6AFF300808D49FD1A0700000095
:107D90004C50002000CA9A3B8C49FD1A40500020EC
:107DA00099C4030039950300B5BF0300002AE78496
:107DB000484612F01FF8072091E6504612F026F8C8
:107DC000484612F017F8F6E770B590F824308AB0FC
:107DD000C3F342030D46044601210DF1230016466C
:107DE0008DF8233010F0ECF871780246284614F034
:107DF00015FB1F491F4AA0FB0131981841F10701EB
:107E000019A3D3E90023FFF77BF9236998420546BC
:107E100021D21B1A00220192174A0293174BA21A71
:107E2000A3FB02320221920900230A4409AE099100
:107E300013490591CDE903330321D2B2069600938D
:107E4000184611F031FA314612F094F838B925612C
:107E500000200AB070BDFBD9C21A0023DBE70C205A
:107E60000AB070BDAFF300808D49FD1A0700000015
:107E700000CA9A3B8C49FD1A4C50002009CB3D8D1D
:107E800039950300000000002DE9F04F05468BB046
:107E90008B46012002219A4614461DF021FF002244
:107EA0000221814601200FF03DFF39494FF4D07285
:107EB00028460FF0C7FEC61CF6B2364B0095324678
:107EC0000121002011F008FA10F0FD0F0CD0324A09
:107ED0003249334840F62F0326F0F0F9404080F352
:107EE00011884FF0030002DF2E4BA4FB034820460D
:107EF00025A3D3E900234146FFF702F9089506952B
:107F00002B690493284B20F07F47A7FB0331E01A2D
:107F1000264B07934FF00702254B059302FB0711F1
:107F20004FF6FE7368EB010103934FF47A7200235E
:107F3000FFF7E6F8CDF800B0CDE9017053463246C0
:107F40000121002011F034F910F0FD0F0CD0124A7D
:107F50001249134840F6440326F0B0F9404080F33C
:107F600011884FF0030002DFB9F1000F02D10BB00E
:107F7000BDE8F08F0122022110460BB0BDE8F04FA2
:107F80000FF0D0BEAFF300808D49FD1A070000004E
:107F9000B03B00201DCE0300185A0500DC5A050036
:107FA000E453050000CA9A3B8D49FD1AC5CD030074
:107FB000CD200400000000002DE9F043C469228DAB
:107FC0004FF6FF739A428DB000F088800546204638
:107FD00017F044FB95F82830012B00F00F81022B9D
:107FE00000F00281002B00F0E18094F85071002F26
:107FF00040F0FD80E68DB4F83080002E71D1AA8C5F
:1080000008F101060023CDE90A33B6B2002A70D088
:1080100094F93930002BC0F248810023A4F88A314A
:1080200095F82630D90740F1EF800023A4F88E316F
:108030000DF127023146204617F0CAF8743000F0DF
:108040004681B4F888312BB1B34240F20D819B1BBD
:10805000A4F88831B4F884312BB1B34240F2FB80EC
:108060009B1BA4F88431258E17B9A84500F0EA803F
:108070000135ADB294F8D13013F001065AD1DDE9E3
:108080000A130A46002B40F0ED80002900F0DC8046
:108090001E461846228DE4690694CDE90357033243
:1080A000A74D0290CDE90016D2B20121002005951E
:1080B00011F0FAF810F0FD0F10D011F085FF844296
:1080C0000CD0A04AA049A14840F2155326F0F6F87A
:1080D000404080F311884FF0030002DF0DB0BDE88F
:1080E000F083AA8C46440023CDE90A33B6B2002AB5
:1080F0008ED195F82630DA0797D4B4F88A31002B60
:1081000000F08280B34240F2FA809B1BA4F88A31CF
:10811000B4F88E31002B8BD09E4280F0DE809B1B0A
:108120009BB20022062BA4F88E31228600F2AC808E
:1081300001277DE794F939206FF30003002A84F8C2
:10814000D13077DB94F87600C0F3C00100F007006F
:108150001BF042FDB4F86E20B4F86C30134403F207
:10816000D51303447A4A7B480721E3FB00211046DC
:1081700071A3D3E90023FEF7C3FFDDE90A1320F062
:108180007F4220692261904235BF161A801A002072
:1081900000260A46002B7FF47DAF56EA010C7FF4DF
:1081A00079AF002850D019461E4673E794F88E30F8
:1081B00003F01803182B7FF418AFA18DB4F88621B3
:1081C0008B1D9A42C4BF931F5B1AB4F88211CCBFB7
:1081D0009BB21346994200F08C80A4F88231A4F837
:1081E0008431A4F8882100E73D2784F8507139468E
:1081F00020460DB0BDE8F04315F0AAB90023A4F85D
:108200008831A4F88431F0E6B4F88E31002B83D1A4
:10821000628DB4F88C3140F2E24101FB02F242F28D
:10822000107101FB0323013BB3FBF2F39BB2A4F8F3
:108230008E316FE794F87700012100F007001BF002
:10824000CDFC87E73D4615E7002D4BD000261146B3
:10825000304633461EE70023A4F88431204617F049
:1082600057F800E7304615E711F016FE01460028E2
:108270003BD00023A4F88831238DC3801B230371D6
:10828000006811F0D3FDE5E694F939309342BFF66A
:10829000CFAEB8F1000F7FF44BAFD4F878315A0865
:1082A000DB0743D4C4F87821C2E628460AAA0BA902
:1082B00004F1D409FFF760FB484616F049FD18B3F6
:1082C000484616F045FD18B300232386A5E69DF821
:1082D0002710204615F03CF900E70821204615F04C
:1082E00037F9FBE6002FB1D1F8E60123A4F8883175
:1082F000B0E6B4F8881100297FF477AE6FE73E212D
:10830000204615F025F9E9E6FF2015F0E1F8D7E75A
:108310000246D4E91E010FF0CDFC0028D4D194F818
:108320003C30580744BFA38D238676E642F00042D6
:10833000C4F87821FCE600BF8D49FD1A0700000053
:1083400085CD0300185A0500405B0500E453050085
:108350008C49FD1A00CA9A3B2DE9F04F87B0CDE950
:108360000423BDF8442003780292BDF84820BDF8EC
:108370004080BDF84C50468EB0F82E90B0F814B145
:10838000019104460392002B00F08E80013EB6B2AC
:10839000A368D4F80C71721B92B2002B009209DA18
:1083A000E168626823F0004391422CBF7F18BF1838
:1083B000A360FF1A009A638D13FB02F39BB2B3FB19
:1083C000F8F218FB02F080B283421FFA82FA5AD206
:1083D000C01A40F2E2425E4902FB00F0A0FB01013C
:1083E00059A3D3E90023FEF78BFE20F07F4007441A
:1083F000D94494F839304D44AD1B554440F2E2461F
:10840000DB09E58506FB08F552D1524A524953482B
:1084100040F6BA0325F052FF404080F311884FF038
:10842000030002DF0026A946029BA385039BA4F854
:108430008C3129462046A4F82A8016F005FF484BC7
:10844000A18D2B44881DB3FBF5F39AB29042A4F89A
:10845000862102D2521A063A92B2019BA4F88221D6
:1084600013B10023A4F88E313B464A4631462046DC
:10847000FFF70AFD94F8803143F0010384F880315E
:1084800007B0BDE8F08F08FB1231314840F2E243FB
:1084900089B203FB01F1A1FB00012BA3D3E9002367
:1084A000FEF72EFE3F1AA3E74E445E44B6B26FE7D6
:1084B000226C0099A36CDFF898B002FB1133A3641F
:1084C0001BF074FD814694F87401C0F342001BF068
:1084D0006FFD049B814406FB03F305FB09F923654B
:1084E00009F574291F4B09F23F29A3FB09394FEA0B
:1084F000994303FB0AF02364A5EB0309A36C6A0804
:108500000344963A934228BF1346C4E9112300233B
:10851000C4F87C31A0FB0B010BA3D3E90023FEF7C9
:10852000EFFD114B059A3F1AA3FB0230800A06FBB0
:1085300000F005A3D3E90023A0FB0B01FEF7E0FD4B
:1085400020F07F4670E700BF8D49FD1A070000004C
:1085500000CA9A3B185A050064540500E45305000C
:108560007FC3C90183DE1B435917B7D10000000048
:108570002DE9F04F0B6891F81180D3F80090037F3C
:10858000176895B00446C3F38013D0F81E008DF829
:108590003F30B8F1FF0F638C12900E461546ADF8D0
:1085A0004C300DF1480A49D19AE803001090ADF81B
:1085B00044102346E28D53F82EBB9B78AB722A8180
:1085C000D4F82A306B60D4F83A30AB6105F118006A
:1085D00094F83E30037105210FF0F2FC6B7F00F040
:1085E0003F0060F305036B7794F83F30C3F3040258
:1085F000AA77A28EEA81012803F01F0392B205D95F
:108600001B3303F01F030B2B00D81ABB0022C9F841
:10861000142095F8203062F3000385F82030E568D7
:10862000012658462146267111F0F6FB28682E7166
:10863000294611F0FBFB15B0BDE8F08F10AA0DF133
:108640003F0140461AF03AF89DF83F3002338DF86A
:108650003F30AEE7336800215960E38EEA892B8210
:1086600040F2E24303FB02F20B92628E0D92384617
:1086700016F0FEFD94F83F2097F87411520962F34A
:10868000430187F874111BF091FC0C9097F874016A
:10869000C0F342001BF08CFC0C9A0B99104401FBB8
:1086A00000F0B94A00F5742000F23F20A2FB002040
:1086B0004A08800C963A6862AA6294F8312040F227
:1086C000E24302FB03F3AB63238FA7F88C313846F8
:1086D00016F0BAFD0B99AD4BAD4AC7F890210B448B
:1086E000B3FBF1F39AB2A7F88621298A881D82424A
:1086F00004DDC1F57F41FA310A4492B2A7F8822124
:108700006B68C7F87831234613F81C2FC2F3401268
:108710000C92DA0700F113814FF48073A38399F868
:1087200026001AF0C1FC04F12B03002800F0EB80B6
:10873000626AC4F82B20228D9A80B8F1FF0F00F0F6
:10874000E680BAF804301298A4F82930C4F825005D
:108750009DF83F30A3771098BDF84430C4F81F004F
:10876000A4F82330EB8963862B8AA386B7F88C3173
:10877000E38697F87431C3F3420384F838303846FF
:1087800014F084FBA881E08021465846746811F0FB
:1087900043FBAB89E3801C2323710C9BD4F800803E
:1087A000002B40F0BA800C9B23772146404611F005
:1087B0003DFB95F85B00B5F85080B5F852400121BB
:1087C00000F007001BF00AFA444404F2D514DFF865
:1087D000CC81044482466F480721E4FB0801312321
:1087E0000024BB607C6066A3D3E90023FC60FEF735
:1087F00087FC20F07F4038610B9B6D6A0D995D1BF3
:10880000F36840F2E24202FB013303F2B241A1EB12
:108810000A0A2246022101200FF084FA484613F08A
:10882000F7FF0246AAFB0801924655A3D3E90023AD
:10883000FEF766FCCDF80490B3685749009120F02C
:108840007F480AF102023A3BD2B22046434401215A
:1088500010F084FD01287FD099F82430DB0766D41E
:10886000384614F013FB4D4BA5FB03A9044644A363
:10887000D3E9002350464946FEF742FC484BB66810
:10888000484A079220F07F45A5FB0331BAEB03006D
:10889000454B059340F2D113069708933B694FF07F
:1088A000000BCDE903B34FF0070303FB051169EBA0
:1088B00001014FF47A720023FEF722FC03343A3EA2
:1088C000E4B2CDE90150CDF80080334622460121C3
:1088D000584610F06DFC10F0FD0F0CD0334A3449AF
:1088E00034484FF4E97325F0E9FC404080F31188E7
:1088F0004FF0030002DF0122022110460FF012FAAE
:1089000015B0BDE8F08FC4F82B00988015E7002261
:10891000C4F82520A4F829201AE76B7F43F0400310
:108920006B77281D19F0D4FC0123E8833CE7002372
:10893000012200931846114610F0CEFC90E71B4A26
:108940001D491C48F82325F0B9FC404080F31188EC
:108950004FF0030002DFDFE611F036FB81453FF404
:108960007BAF124A1549134840F2792325F0A6FC43
:10897000404080F311884FF0030002DF6CE700BF36
:108980008D49FD1A0700000083DE1B437FC3C90128
:10899000404B4C008C49FD1A9120040000CA9A3BC0
:1089A0008D49FD1A61200400CD200400DC5F050024
:1089B000DC5A0500E45305008C57050038600500BB
:1089C00010B5334C3349002304F1FF3C14F8332035
:1089D000072A02EB820E05D811F83E206FF34512EC
:1089E00001F83E201CF833206FF300020CF833200E
:1089F0000133082BEAD1284A284C002313700A7847
:108A000063F300020A7091F8282063F3000281F8F2
:108A1000282091F8502063F3000281F8502091F84B
:108A2000782063F3000281F8782091F8A02063F3A6
:108A3000000281F8A02091F8C82063F3000281F8B9
:108A4000C82091F8F02063F3000281F8F02091F83B
:108A5000182163F3000281F81821114A9FED0A7B67
:108A60001370104B83ED007B0F4B236028B1BDE8E2
:108A700010400E490E482AF099BEBDE810400C483F
:108A80002AF0A2BEAFF30080FFFFFFFFFFFFFFFF52
:108A9000F5560020B455002092690020C4540020EF
:108AA00091690020803D0020A0BB0D00C12D040075
:108AB000503D0020000000002DE9F04F8FB00DF177
:108AC00037010446DFF8E0A0DFF8E0800DF1360062
:108AD00011F02AFA9DF836309DF837B00B9310F05C
:108AE00081FCDAF80060A6FB085629A3D3E900232D
:108AF0000027814631462846FEF702FBCDE907777D
:108B0000069420F07F44DAF80400234B0593A0FB81
:108B100008011FA3D3E90023FEF7F2FA1F4B20F050
:108B20007F40A4FB0331072202FB0411CDE903704F
:108B3000E81A66EB01014FF47A720023FEF7E0FABF
:108B40000097CDE901404B460B985A46032110F09F
:108B50002FFB10F0FD0404D06FF08B000FB0BDE8C8
:108B6000F08F0F480F4A002323F0F8FB20B9DAF802
:108B70000C000FB0BDE8F08F9DF837209DF836004F
:108B800000942346032110F0A7FB6FF07300E5E784
:108B90008D49FD1A07000000553304008D49FD1A68
:108BA00068570020447B0B008057002000CA9A3B86
:108BB00038B50F4D044610F015FCA96810F014FCF0
:108BC000696803460B48B3FBF4F4A1FB00011C44A5
:108BD00005A3D3E90023FEF793FA20F07F408442F7
:108BE00094BF0020012038BD8D49FD1A0700000008
:108BF0008057002000CA9A3BF0B5C468636883B010
:108C00000546002B63D11CF0F7FB00201CF01AFC7A
:108C1000002108461CF008FC0022252108201CF039
:108C200047FC454B019301A81CF02AFC434940F244
:108C30005B601CF0CFFC237AC3F3420262F306139D
:108C4000204623721BF0D2FB1AF002FB58BB637A5A
:108C50009B071FD127682E6838461AF05BFF064431
:108C60006A6806F1090101201CF0FCFD1CF0BAFE47
:108C7000204613F0D9FD811C3246C9B238461AF09D
:108C800057FF054670BB20461AF0ECFE88B900205D
:108C900003B0F0BD012019F059FF4178821C007823
:108CA0001CF080FDD6E7607A10F0030018BF0120A9
:108CB000F1E7234A2349244840F22C4325F0FEFAE9
:108CC000404080F311884FF0030002DFDFE793F8A4
:108CD00020309A0797D01D4821461CF04BFB1CF012
:108CE00033FCD4E7164A1A49174840F2144325F0DA
:108CF000E5FA184B0721A5FB030301FB05310CA383
:108D0000D3E90023FEF7FCF913490246134825F086
:108D1000D5FA404080F311884FF0030002DF10487D
:108D200021461CF027FB1CF00FFC6FF08B00AFE717
:108D300000CA9A3B00000000D6BE898E55555500EA
:108D40003064050050550500E4530500B93C0400AB
:108D5000645405008D49FD1AE0640500B464050003
:108D6000BD3F0400000000002DE9F041C468A28965
:108D70004FF6FF739A4282B000F0C78005461BF0A1
:108D80005DFE2B89628AE08A1A4492B21044637FA6
:108D9000A28280B2411CE1825E064FF00001618236
:108DA00004F1180100F18C8003F03F000B46A17F15
:108DB000009004F11F0019F043FA0646D4E90B2392
:108DC0001344D4E90D0200210244E1626163A16A07
:108DD000A26394F872208B4228BF0B4612F0040263
:108DE000236377D01CF008FB00201CF02BFB201D18
:108DF0001CF046FB2389A17A40F25B6043EA014103
:108E00001CF0E8FB30461AF0A5FE214658481CF03D
:108E1000B1FA96201CF01AFD94F85A2094F85B00E1
:108E2000C2F3C003002102F0070200F007001CF0AB
:108E300037FC20461BF064FE27682E6838461AF07F
:108E400069FE06446A6806F1090100201CF00AFD6B
:108E500080461CF09BFD00201CF0B2FD236B94F8B3
:108E60005B0003F13002A36B00F00700012103EB6C
:108E700042051CF05BFB4544054494F85B0000F0A0
:108E80000700022824D004280CBF4FF4BC73282309
:108E900001211D441CF04CFB28441CF069FDA189F4
:108EA00003313246C9B238461AF042FE054698BB35
:108EB00020461AF0D7FDD0B9002002B0BDE8F081FD
:108EC0000A4603F03F03E18B19F006FA064675E700
:108ED0001823DDE7D4E917010EF0ECFE002881D15C
:108EE00094F8723043F0040384F872307AE7214A30
:108EF0002149224840F2551325F0E0F9404080F323
:108F000011884FF0030002DFD6E71D4821461CF010
:108F100031FA1CF019FBCFE7164A1A49174840F2FC
:108F20004B1325F0CBF9184B0721A5FB030301FBDD
:108F300005310DA3D3E90023FEF7E2F813490246F9
:108F4000134825F0BBF9404080F311884FF003002F
:108F500002DF104821461CF00DFA1CF0F5FA6FF004
:108F60008B00AAE7AFF3008000CA9A3B0000000024
:108F7000594D04005865050050550500E45305009F
:108F8000B93C0400645405008D49FD1AAC65050028
:108F9000B4640500953C04002DE9F0472DED028BEB
:108FA0009FED498B4A4E84B004464FF02003EFF307
:108FB000118783F31288BFF36F8FD4F8C8508DB92F
:108FC000022104F1E0002AF03AFB002843D10023FB
:108FD0008DED008B029304F1D00239463D4823F019
:108FE0009BFEE2E7D4F8CC202B68C4F8C830954249
:108FF00008BFC4F8CC30D4F8E03043F00203C4F822
:10900000E030EB6823F0040343F00103EB606B688E
:1090100087F31188BFF36F8F284698474FF02003DE
:10902000EFF3118983F31288BFF36F8FEB68990711
:1090300023F0010219D4EA60D4F8E03023F00203EF
:10904000C4F8E03089F31188BFF36F8FDB05ACD42F
:1090500023F042FDA9E704F1D805002201212846AA
:109060002AF0F3FC0028F8D1B1E7306823F00303BD
:10907000EB600028E0D00027D0F80080BA46002836
:10908000DAD04268954201460BD1016897B97268FF
:109090003160824200D1716040F808AB23F038F9AA
:1090A0003946B8F1000F0BD0D8F8002040460F46E3
:1090B0009046E4E739607268824208BF7760EBE768
:1090C0004246F3E7AFF30080FFFFFFFFFFFFFFFF24
:1090D00098670020A9690020014823F01BBA00BF4F
:1090E00048030020014823F015BA00BF38030020D0
:1090F00007B52AF0E7FC4FF47A72A0FB020302FBEB
:109100000131C00B074A40EA4140106000234FF490
:1091100000420548CDE9002323F0DCFF002003B026
:109120005DF804FBF0410020980D0020014B1878F9
:1091300000F09CBA06680020044B1A78824202D0E4
:109140001870FFF7F3BF0020704700BF06680020CB
:1091500008B52AF0B7FC4FF47A72A0FB020302FBB9
:109160000131084AC30B126843EA41439B1A47F294
:109170003052934204DDBDE808400120FFF7DCBF18
:1091800008BD00BFF041002008B52AF09BFC4FF459
:109190007A72A0FB020302FB0131C00B044A40EAD1
:1091A00041401060BDE808400020FFF7C5BF00BF88
:1091B000F0410020014B1878704700BF066800207E
:1091C0002DE9F04F1C4D1D4CDFF878A0DFF878B08A
:1091D00083B0641BA40800AF0026A946B44204DC97
:1091E00000200C37BD46BDE8F08F0136B04644453F
:1091F00001D10435F2E72B6859F828201B68116863
:109200007B601846FEF7E6F87B6890B9C7F804D093
:1092100088B06A46C2E905A34FF40073938342F80D
:1092200010BF4FF4E2510346054802F0FDFDD7F8A8
:1092300004D008F10108DAE7B0B80500BCB80500B1
:109240003C4805008A69050003000001F8B50446A2
:1092500010B900252846F8BD0378002BF9D00F4E31
:109260000F4FBE420FD30D4EBE42F2D230682AF0ED
:109270003AF830B1356821462868FEF7ABF8002887
:10928000E8D00436F0E730682AF02DF818B13568D8
:109290002B68A342DED00436E3E700BFB0B8050078
:1092A000BCB805001FB50A4C2468A46884420DD1DF
:1092B00083F00103CDE90112039306480022002345
:1092C00001A922F08BFE044823F024F904B010BD5C
:1092D0009C420020D00E00208C4200202DE9F04F4F
:1092E000DFF80081DFF80091384E8DB002AF002228
:1092F0000023391D404622F0C7FE834618B12C37A3
:10930000BD46BDE8F08FD9F80030FC685868D7E951
:10931000011224F0ACFA2E4B002C18BF3346051E68
:10932000D7E9010115DA6C468AB002AA294DC2E9D3
:10933000071340F202439384274BC2E9055042F8D9
:10934000103F26485B464FF4325102F06DFDA546B2
:10935000CDE7EA468CB002AADFF890C0C2F814C08C
:109360009362DFF88CC040F2046393851C4BC2E922
:1093700006C0C2E9081542F8103F18485B464FF492
:109380007451B4FA84F402F04FFDFF236409D5460A
:109390003B747D613C762AF095FB4FF47A72A0FB1A
:1093A000020302FB0131C00B40EA4140C90BC7E98F
:1093B000080107F1280313E903008DE8030007F112
:1093C00010030FCB00F06CF991E700BFBA690500FC
:1093D000B5690500C0690500050000013C480500AD
:1093E00007000001D00E00209C420020F669050015
:1093F000AA6A05001FB50023CDE90233044B8DF89E
:109400000C0001A8019324F059FA05B05DF804FBA3
:109410009C4A0500044B1A68044B9A4214BF6FF033
:1094200012000020704700BF9C420020884A0500BF
:10943000F8B5054600AF002838D01E4E3368834289
:1094400032D02BB1986818B183685B6803B1984734
:1094500019491A4B8D4214BFED210021262200200C
:1094600024F01FFA041E12DA6D4688B06A46144BC7
:10947000C2E90534032342F8103F124800234FF499
:10948000C25102F0D1FCAD462046BD46F8BDA868E9
:10949000356048B183680C491B6898473368986801
:1094A00083689B6803B198470024EDE76FF01204CE
:1094B000EAE700BF9C420020884A0500F4410020F2
:1094C000266A05003C480500A592020038B505460D
:1094D00048B90648FFF7ACFF041E02DB2846FFF739
:1094E00089FF204638BD6FF01504FAE7884A050069
:1094F000B0B5104D034600AF0846012229469847F3
:10950000041E12DC6D4688B06A460B4BC2E9053476
:10951000032342F8103F094800234FF4C25102F0E0
:1095200083FCAD462046BD46B0BD2878FFF7CEFF90
:109530000446F7E7A00C00205B6A05003C480500E4
:1095400073B50E4614460A4901AA1D4625F0B9FD19
:1095500038B1019B3BB9012E07D129462046FFF7C0
:10956000C7FF02B070BD0020FBE76FF01500F8E701
:10957000A16A05000148FFF75BBF00BF884A0500EC
:1095800008B5074907482AF0CDF8074A002342F8F2
:10959000043B0133262BFAD1BDE80840FFF7EABFB0
:1095A000DD9202008C420020F44100202DE9F843B6
:1095B000274E284BA3EB060800AF81460D4606EB6D
:1095C000C106C8F3C708A84524DD3268D9F80030C1
:1095D0009A420BD189F80450736848461B68984733
:1095E0000128044605D0022819D0E8B9013508360B
:1095F000E9E76C4688B06A46174B5361174B936195
:10960000032342F8103F164800234FF4C85102F0DC
:109610000BFCA54600242046BD46BDE8F8836C46F9
:1096200088B06A460F4BE8E76D4688B06A460E4B35
:1096300053610A4BC2E90630042342F8103F084840
:1096400000234FF4045102F0EFFBAD46E3E700BF07
:1096500014A705003CA70500116B0500736B0500FE
:109660003C480500306B0500506B05001FB500231A
:10967000CDE90233044B8DF80C0001A8019324F0CE
:109680001DF905B05DF804FBA04A05000268034B14
:109690009A420CBF08300020704700BFA04A050066
:1096A00084B030B589B00CAC84E80F00002301937E
:1096B0000CAD084B00930FCD02AC0FC495E803002E
:1096C00084E80300684624F0F9F809B0BDE83040AA
:1096D00004B07047A44A05000268034B9A420CBFCD
:1096E00008300020704700BFA44A05001FB50023C2
:1096F000CDE90233044B8DF80C0001A8019324F04E
:10970000DDF805B05DF804FBAC4A050080B500AF9C
:1097100088B06A46074BC2E90530032342F8103F80
:10972000054800234FF4C25102F07EFB6FF00400A5
:10973000BD4680BD056C05003C48050082B010B5F3
:1097400002A981E80C0004460C4822F083F928B9EC
:109750006068BDE8104002B0FFF7D8BF6368022B15
:1097600006D124F0C8F80028CCBF0020012060609A
:10977000BDE81040002002B0704700BF2D6C05000E
:1097800082B0B0B500AF07F1100181E80C000546CA
:109790001F4822F05FF96B680446B0B96D4688B087
:1097A0006A461C49C2E90513032342F8103F4FF4EF
:1097B000C2510346184802F037FB6FF00400AD4673
:1097C000BD46BDE8B04002B07047012B0AD0022B65
:1097D00003D053B924F088F8F2E724F08CF800287D
:1097E0002046F7DC24F079F8EAE76C4688B06A4650
:1097F0000A49C2E90513032342F8103F0648002333
:109800004FF4C25102F010FB6FF08500A546D7E778
:109810002D6C0500056C05003C480500376C050003
:109820001FB50023CDE90233044B8DF80C0001A8CD
:10983000019324F043F805B05DF804FBEC4A050001
:109840000268034B9A420CBF08300020704700BFEB
:10985000EC4A050008B500F0D3FFBDE80840014917
:1098600029F08DBF5803002007B5084829F03BFDBB
:1098700048B14FF4F0120023CDE900230448002240
:10988000002323F027FC03B05DF804FBD844050057
:10989000D00D002008B5FFF7F9FE10B96FF0850074
:1098A00008BDFFF787FC38B10138C0B20128F5D8F0
:1098B00003482AF05AF901E0FFF7D6FF0020EFE74E
:1098C000D00D002080B50C4B00AF88B01B686A46F5
:1098D0000A49C2E905134FF400739383084B42F819
:1098E000103F084800234FF4E25102F09DFA6FF058
:1098F0001200BD4680BD00BFD84405009D6C050028
:10990000030000013C48050008B5064829F0EBFCBF
:1099100018B9BDE80840FFF7D5BFFFF7A5FF002045
:1099200008BD00BFD8440500F0B583B000AF364D88
:10993000AE682D21F36828469847044620B36D464B
:1099400088B06A46314B5361314BC2E90634042377
:1099500042F8103F00234FF404512E4802F064FAFD
:10996000AD466D4688B06A462B4B53612B4BC2E91E
:109970000634042342F8103F264800234FF40451D4
:1099800002F052FAAD463BE02D2133693A462846B3
:109990009847044620B16D4688B06A46204BD2E70E
:1099A000204E3B6832789A422AD06D4688B0337098
:1099B0006A461D495161DBB2D361154991610423A7
:1099C00042F8103F4FF404510346124802F02CFABB
:1099D000AD46307804F094F8044658B188B06A4631
:1099E000124BC2E90530032342F8103F00234FF425
:1099F000C451B2E73078FFF713FF04460028B0D116
:109A00000C37BD46F0BD00BFD8440500BE6C050054
:109A1000936D05003C4805006B6D0500A66D0500C3
:109A2000E56C050007680020136D05003D6D05001D
:109A30001FB50023CDE90233044B8DF80C0001A8BB
:109A4000019323F03BFF05B05DF804FBF44A0500E9
:109A500008B5BDF808101944012908DC3BB1054BD5
:109A6000127805481A7022F055FD012008BD6FF0EC
:109A70000600FBE708680020A80300201FB510249B
:109A80000294044C0194BDF81840009428F00BFA9D
:109A900004B010BD1D68002007B5064B00930649B1
:109AA000064805234FF43E7222F03AFD002003B031
:109AB0005DF804FBF84A0500B06900207811002029
:109AC0002DE9F04F91B006AF6E46B7F850B0CC68B4
:109AD0000BEB03098AB092461D461FFA89F906AAC4
:109AE000504BDFF8608153610523C2E9068B156294
:109AF0004D4842F8103F4FF4245123F036FFB9F19E
:109B0000140FB54600F28A8014202A46514600FB05
:109B10000B402AF09AF9B9F10B0F7AD9A14419F840
:109B2000011C002975D12022781D2AF0B6F90123E5
:109B30003B71D4F80330C7F81530D4F80730C7F8B4
:109B400019302378C7F81D30A37887F822300B34FA
:109B500010222146781D23F06EFE0F2811D98AB0FD
:109B600006AA324B3048C2E905347B1DD361304B25
:109B70001362304B42F8103F4FF4215123F0F5FEB1
:109B8000B5466E468CB0D7F81500D7F8191097F87F
:109B900022E006AA7B1DC2E90730DFF8ACC02248EC
:109BA00040F201339385244BC2E905C8C2E9091E7E
:109BB00042F8103F4FF4745123F0D7FEB54600F041
:109BC0008DFB07F1100E8146BEE80F00EC46ACE8B5
:109BD0000F009EE803004CF8040B07F104088CF812
:109BE000001098E80E00484600F04EFC88B18AB09C
:109BF00006AA124BD061C2E905344FF400731384F6
:109C00000F4B42F8103F08484FF4115123F0ADFEBE
:109C1000B54628462C37BD46BDE8F08F6FF00605E7
:109C2000F7E700BFDB6D05003C480500F06D05005F
:109C30000002010304000002070000015C6E050041
:109C400004000001BF6F0500366E050080B500AF4F
:109C500088B06A46074B5361074B0848C2E9063192
:109C6000042342F8103F4FF4045123F07EFEBD461A
:109C700080BD00BF7D6E0500A76F05003C48050054
:109C8000B0B50C4C00AF6D4688B023786A460A49DF
:109C900051610A490A48C2E90613042342F8103FF9
:109CA0004FF4045123F061FEAD462078FFF70EFC1F
:109CB000BD46B0BD086800208A6E0500D66F05005D
:109CC0003C480500F0B5184D184E8BB000AF00228F
:109CD00000233946284622F0D7F9044610B12C3724
:109CE000BD46F0BD2146182207F110002AF0D5F834
:109CF0001023F9182046C7E90567BB830BF06AFFFC
:109D00000028E4D06C4688B06A46094B5361094B81
:109D1000C2E90630042342F8103F07484FF40451CB
:109D200023F023FEA546D2E7000F0020144B0500C8
:109D3000BF6E05008A6F05003C480500B0B586B0CF
:109D400000AF1C491C4840F6CD42002322F046F9E2
:109D5000044650B310F10B0F17D1184B7B6102234F
:109D600017483B6107F110024FF4845123F0FDFDC9
:109D7000002200233946104822F086F9FFF7DEFF63
:109D8000044620461837BD46B0BD6D4688B06A46C9
:109D90000C4BC2E90530032342F8103F08484FF44A
:109DA000C45123F0E2FDAD46EBE70749074829F02F
:109DB000E6FCE6E71D680020000F0020D66E0500D7
:109DC0003C480500226F0500680300207811002040
:109DD000B0B5037800AF9BB1032B20D06C4688B0A0
:109DE0006A4612491248C2E90513032342F8103F9C
:109DF0004FF4C45123F0B9FD6FF08500A5460FE084
:109E000042780C4D02F00701D40801228A40817883
:109E10002B5DD2B231B113432B55FFF78FFF0020DA
:109E2000BD46B0BD23EA0203F6E700BF4E6F050052
:109E30003C4805001D680020014B1970704700BFA9
:109E400030680020014B186000207047A0420020BD
:109E5000084A094B12781B78002062F30700074A72
:109E600012785B0062F30F20DBB282B063F317401D
:109E700002B070472D680020316800202E68002055
:109E800013B50C4B1C6894B1FFF7E2FF8DF804008A
:109E9000C0F30723C0F307408DF805308DF80600A6
:109EA00001990548234602B0BDE81040184702B0AA
:109EB00010BD00BFA0420020BCB8050010B5084886
:109EC00008F056FF074809F01FF9074B0748002420
:109ED0001C70074B01221A7022F01CFB204610BD9B
:109EE000F0030020E00300202F680020D0030020B2
:109EF0002D6800200B4BB1FA81F010B540090C46DB
:109F00001870FFF795FD3C2C0AD1074B1B783BB12D
:109F1000064B074801221A70BDE8104022F0FABA39
:109F200010BD00BF316800202E6800202F6800207F
:109F30001004002070B503788AB004460E4607ADC1
:109F4000032B20D8DFE803F002191B1D1149284616
:109F5000FDF74AFA059563780493A3780393E378B1
:109F600002932379019363790093A3790A4A1E210E
:109F7000304623F087F90AB070BD0849E7E7084981
:109F8000E5E70849E3E7084A0A21284623F07AF979
:109F9000E0E700BFFC6F05001E70050003700500C0
:109FA0000A70050014700500C89A0500B0B588B0A5
:109FB00000AF0C4627F069F83946FFF7BBFF6D4646
:109FC0008AB06A46114B5361114B1462C2E90637DD
:109FD00040F2013393840F4B42F8103F0E480023A8
:109FE0004FF4345101F020FF0C4B0024AD462046C5
:109FF0001C70FFF71DFD0A4B1B7823B1094B0A4863
:10A000001C7022F087FA2037BD46B0BD41700500B4
:10A0100061710500050000013C4805003168002021
:10A020002E6800202F6800201004002038B5072279
:10A030000C46064905462AF0CBF828B12B68236068
:10A04000AB88A380AB79A37138BD00BF88800500C1
:10A05000F0B5294E294B2A498BB002AF3068B2883F
:10A060001C7878603D1DB3793A8100202A46AB7197
:10A070000DF04EFB3146072228462AF0A9F8214B65
:10A08000064660B33CBB03202246214601241C70D7
:10A090000023C7E90402C7E90615BB81BB731A4652
:10A0A0000093194607F10C0007F0BCFE00280FDAF8
:10A0B0006C4688B002AA144BC2E90530032342F86B
:10A0C000103F124800234FF4C25101F0ADFEA546E7
:10A0D0002437BD46F0BD1320A022F021D6E70C4D59
:10A0E00018700FCD07F10C040FC42B6823600949C9
:10A0F000009633460322D5E7888005002F680020AC
:10A100002DA00200306800206A7005003C48050060
:10A11000F0480500C44B0500B0B582B000AF012087
:10A12000194900243A1D7C6008F0F4FC7868A0B15D
:10A13000132126F022FF00280FDA6D4688B06A4608
:10A14000124BC2E90530032342F8103F1048234662
:10A150004FF4C45101F068FEAD4607F095FE0028AB
:10A160000FDA6C4688B06A460A4BC2E90530032311
:10A1700042F8103F064800234FF4C45101F054FE4A
:10A18000A5460837BD46B0BD71D904008B700500E7
:10A190003C480500BB70050008B5054B187020B1A0
:10A1A000044822F0B7F9002008BDFFF7B5FFFAE731
:10A1B0002E68002010040020B0B5002000AF06F08B
:10A1C0007BFF044690B16D4688B06A46094BC2E9F0
:10A1D0000530032342F8103F074800234FF4C251D3
:10A1E00001F022FEAD462046BD46B0BD034803F057
:10A1F0003FFDF8E7DB7005003C480500B803002090
:10A20000F0B589B000AF0D46144626F03EFF394642
:10A21000FFF790FE6E46BCB98AB06A46134B536195
:10A22000134B1562C2E9063740F201339384114B98
:10A2300042F8103F4FF4345123460F4801F0F4FD2B
:10A240002437B546BD46F0BD8AB06A460B4BC2E91D
:10A2500005374FF400739384064BC2E9075442F864
:10A26000103F00234FF43151E7E700BFF1700500C4
:10A270007F710500050000013C48050013710500D1
:10A28000F0B589B000AF0E4615461C4626F0FDFE1F
:10A290003946FFF74FFE8CB068460C4B43610C4BC0
:10A2A0008462C0E90637024640F201338385094BD8
:10A2B000C0E9086542F8103F074800234FF4745185
:10A2C00001F0B2FD2437BD46F0BD00BF3771050077
:10A2D0006E710500070000013C480500004870470A
:10A2E000BCB805007FB5074B05930748022304AAB5
:10A2F0004FF48451049323F03FFB6FF0120007B03A
:10A300005DF804FB9F7105003C480500F0B5284C42
:10A31000284E83B000AFB442254602D36FF012003E
:10A3200018E02B689B680434BBB9234C2368AB420C
:10A330001FD16C4688B06A46204B5361204B936115
:10A34000032342F8103F1F484FF4C85123F014FB79
:10A35000A54600200C37BD46F0BD9847C0F3072343
:10A3600038717B71C0F30743C0B2BB710028D2D0F3
:10A37000DBE7ABB11B685B6893B10020984700280E
:10A380000EDA6E4688B06A460F4BC2E905300323E9
:10A3900042F8103F0B484FF4C45123F0EDFAB54694
:10A3A0002B6825605B68002BD3D001209847D1E74C
:10A3B000BCB80500C0B80500A4420020D371050058
:10A3C000EA7205003C4805000672050070B5094CAC
:10A3D000094D0A4EAC42234603D3BDE87040FFF757
:10A3E00095BF1B68DB680434002BF3D030469847D8
:10A3F000F0E700BFBCB80500C0B8050001A402002A
:10A40000F0B51C4B83B01B6800AF83427960C1F389
:10A4100007442BD16D468CB0787939796A46164E4F
:10A420005661164E9462C2E906630723C2E9080129
:10A4300042F8103F12484FF4645123F09DFAAD46A4
:10A440001CB100200C37BD46F0BD88B06A460D4BEC
:10A450000B48C2E90536032342F8103F4FF4C851B8
:10A4600023F08AFAAD46FFF751FFEBE7FFF74EFF07
:10A47000E7E700BFA44200203F7205000B73050010
:10A480003C4805008D72050084B02DE9F0439BB077
:10A4900004AF07F17C006C4688B080E80E0004AA87
:10A4A000654B5361654D9561032342F8103F644845
:10A4B0004FF4C85123F060FA97F87C30012BA54681
:10A4C00040F0A380D7F88D10D7F8913097F89A60B4
:10A4D000B96007F17D008CB07860FB6004AADFF8FA
:10A4E00074C1C2E9093640F201339385554BC2E984
:10A4F00005C5C2E9070142F8103F51484FF47451B5
:10A5000023F03AFA1822A546002107F1100029F09D
:10A51000C4FCD7F8959029F0D5FA4FF47A73A0FBD4
:10A52000030C03FB01CCC40B97F89A3044EA4C446B
:10A530004FEADC3CC7E9059407F14008C7F81CC0A6
:10A54000002B37D007F110060FCE07F128050FC5F5
:10A5500096E8030085E80300C7E90B94C7F834C008
:10A5600007F128060FCE44460FC495E8030084E89F
:10A570000300786823F079F9B0B96FF015006C46E4
:10A580008AB07B6804AA3049D061C2E905134FF450
:10A59000007313842D4B42F8103F29484FF411519A
:10A5A00023F0EAF9A54630E083689C680CBB6FF0A5
:10A5B0008500E4E707F110050FCD07F128060FC667
:10A5C00095E8030086E80300C7E90B94C7F834C098
:10A5D00007F128040FCC45460FC596E8030085E82F
:10A5E0000300786823F041F90028C6D08368DC684E
:10A5F000DCE707F1580313E90F008DE80F00381D61
:10A6000098E80C00A0470028B9D188B097F87C30B2
:10A6100004AA0F490A48C2E90513032342F8103F70
:10A620004FF4C45123F0A8F96FF085005C37BD46A4
:10A63000BDE8F04304B07047B17205002773050010
:10A640003C480500070000015C6E050004000001A5
:10A65000B6720500366E0500044B1B681BB11B6803
:10A660000BB11B680BB9FFF73DBE1847A442002091
:10A67000B0B584B06C4600AF88B005466A461A4B48
:10A6800053611A4B9361032342F8103F18484FF46B
:10A69000C85123F071F92846A546FFF71DF8044676
:10A6A00058B10D220021384629F0F7FB63687B7012
:10A6B000237ABB703846FFF7CFFF2846FFF7C0F874
:10A6C00068B10023C7F80130C7F80530C7F8093072
:10A6D00003233B7003787B703846FFF7BDFF0020F3
:10A6E0001037BD46B0BD00BFB1720500D072050085
:10A6F0003C4805007FB5084B0593022304930748A7
:10A70000002304AA4FF4825101F08EFB6FF0150074
:10A7100007B05DF804FB00BF567305003C48050018
:10A7200008B5044802F08EFB18B1BDE80840FFF7F9
:10A73000E1BF08BD99A70200B0B5134C00AF6D464C
:10A7400088B023786A46114951611149C2E906135C
:10A75000042342F8103F0F4800234FF4045101F046
:10A7600063FB23780B2BAD464FF0010008D89840CF
:10A7700010F4CD6F06D110F4016F0CBF0120002042
:10A78000BD46B0BD0220FBE72C0D00206B73050019
:10A79000797305003C4805000A2810B514D00B4C0D
:10A7A0002070FFF7C9FF0228094A0BD121781378DE
:10A7B000032908BF43F001031370BDE810400548AA
:10A7C00021F0A8BE0023F7E710BD00BF2C0D00202C
:10A7D000326800202004002007B5064B009306498C
:10A7E00006480A234FF4407221F09AFE002003B07D
:10A7F0005DF804FBE04B0500A86C0020601200200F
:10A8000000487047601200207FB5094B0593022372
:10A810000493002304AA4FF48651064801F004FB78
:10A8200003F03CFB24F046FC002007B05DF804FB7D
:10A83000A87305003C48050010B5094C0A44914234
:10A8400000D110BD11F8013B584003090001E35C41
:10A85000C0B2434018091B01205CDBB25840EEE750
:10A86000BD7305002DE9F04F91B08407009302F00D
:10A8700004030293C2F3C20303F10103DDF86890FD
:10A88000039205460E46059340F0BA81041D30B18F
:10A89000072909D86FF01B0011B0BDE8F08F01F057
:10A8A0000706341DC6F10806009B4FF00008591E2C
:10A8B0004FF0040A4FF0FF330193CDF81080474664
:10A8C000C34653460DB1009820600598002800F358
:10A8D000E8809848009A824203D397488242C0F0A9
:10A8E000E080039AA4EB050E92074FEA9E0000F168
:10A8F00003810F2F00F2B180002D00F0058107F1D8
:10A9000040020DEB020C019A0CF8200C0CF8102CF4
:10A91000049801300490E7E07A285DD84B280ED8DF
:10A92000472859D829282DD8252852D054D820284E
:10A930007AD02338D0F1000B4BEB000B74E04C388D
:10A940002E2849D8DFE800F0704848484848484871
:10A95000484848484B484848484848484859484B60
:10A960004B595959704B6D487048184B18484882DC
:10A970007F4B48484B487F0000204FF0000B4FF0C2
:10A98000040A38E02A38C0B2012202FA00F010EAC4
:10A990000E0F49D110F0625C2FD110EA020B43D0A8
:10A9A0006046013C5444B4FBFAF40AFB04F4002D65
:10A9B00061D0A3EB050CA4446645FFF46BAF0028FF
:10A9C00068D1042B47D159F8043B23600434042395
:10A9D0002AE0019A013A01924FF0000B24E011F8AD
:10A9E000010C6C2834D111F8023C00206C2B8346FA
:10A9F000C5D14FF0080A5346D3E709F1070929F0FA
:10AA000007090734F9E802AB24F0070435B10698CA
:10AA10002044B0423FF63EAFC4E900AB08344FF0EB
:10AA2000000B4FF0080A534611F8010F002878D0A8
:10AA3000BBF1000F7FF470AF2528F5D1019B0133E6
:10AA400001934FF0010B4FF0040AECE7584694E7EE
:10AA500000208346A5E7082B02D06FF015001BE706
:10AA600009F1070929F00709B9EC027B84ED007BA5
:10AA700008340823D8E768B9042B02D109F1040986
:10AA8000A4E7082BE9D109F1070929F0070909F121
:10AA90000809EDE705980138059059F8040B009076
:10AAA00010E7039A900720D5A4EB050E4FEA9E000D
:10AAB0004FF0010CBEF5007FCFD20F2FCDD8F5B1EE
:10AAC00007F140020DEB020EC0B2019A0EF8200C05
:10AAD0000EF8102CBCF1000F3FF41AAF60F07F00AD
:10AAE0000EF8200C08F101080137C5F10802043402
:10AAF00006924FF6DA7E97E74FF0000CDAE7BCF1EA
:10AB0000000F01D00136EFE7029A0236002AEBD19E
:10AB10000098CDE90631FCF76FFCDDE9063106440B
:10AB2000E2E7631BB3F5806F97D23DB9A6F1080445
:10AB3000E018B1E6884205003CA70500029A2860AB
:10AB40009B082B709DF81030C2B1EB7085F8028025
:10AB5000B8F1000F05D008A80022C5F1010C9742FA
:10AB60000ED1C5F101030DF120094FF0000A019348
:10AB70000DF1300B574512D1601B8DE66B70E5E788
:10AB800010F8013B190608D504EB0C0E764503F0CE
:10AB90007F03FFF47FAE04F8013B0132DFE7B8F139
:10ABA000000F03D099F90020002A17DB029BD3B1D4
:10ABB0001AF80B2004F8012B0022019B981820445E
:10ABC0008642FFF467AE99F8000004F8010B009983
:10ABD0000392204629F039F9039A14440AF1010A34
:10ABE00009F10109C6E799F8002055F822300093D1
:10ABF000029B45F822300098FCF7FEFB421CDCE784
:10AC00006FF00D0048E600BF2DE9F04F95B000AFA2
:10AC100090F802B0BB61BB6F7A62C3F3C003044615
:10AC20003B618A4641B9457800780BEB80002044AF
:10AC3000554517D8A0EB040AE3787B61BBF1000F00
:10AC400002D0BB6FD80716D47B6953BB7B6A1BB19C
:10AC5000BA69514620469847554628465437BD465E
:10AC6000BDE8F08F461C3046FCF7C6FB013030448F
:10AC70000AF1010ADCE723783B629B00FB603B6A38
:10AC80006268FA6104EB83097B6A002B40F0FE8066
:10AC90005546C84609EB0B0A0026D04551D1D94488
:10ACA00013E0BB6F9907D1D523783B6299469B008F
:10ACB000FB606368FB617B6A04EB8909002B7AD136
:10ACC0005546BBF1000F4FD15E46BB6F13F0050F29
:10ACD0007B6909EB430ABB6F03F002030CBF4FF023
:10ACE000020B4FF0010B7B62D145B6D019F8021B65
:10ACF00019F8013C54F82380AA4B984502D3AA4B7B
:10AD0000984538D33B69002B42D0F86922F06FFE9A
:10AD100000283DD0E8468AB06A46A44B5361FB69DF
:10AD2000C2E906314FF400731384A14B42F8103F7F
:10AD3000A04800234FF4125101F076F8023DC546B9
:10AD4000D2E718F8013B54F82300FCF755FBFB6FE2
:10AD500001303BB1D7F880309E423EBFFB6F23F8F5
:10AD600016000136054498E7BB6F13F004061CBFBC
:10AD70007E6AD944A9E73B6923B1F86922F037FE1E
:10AD80000028C7D1BB6FDA0705D4A5EB0B05ABE7ED
:10AD90007B6A002BA8D04046FCF72EFBFB6F43B12B
:10ADA000D7F880309E423FBFFA6F431C22F816301E
:10ADB0000136054498E7BBF1000F6DD0BB6F13F06F
:10ADC00004066CD0D846002607F140005A46494692
:10ADD00029F03BF87B695B007B607B69D94409EB18
:10ADE0004303BB60BB6F03F002033B60BB684B4592
:10ADF00057D1B96F6378B86F890706EB030254BF68
:10AE00004FEA58010021C507D2B200F19A8010F034
:10AE1000040F14BF40460020FB616270A070E17017
:10AE2000BA69F9687B6A20469847051EFFF615AF98
:10AE30003B6A2370FB6963707B69E3704146BA69C2
:10AE40007B6A84F802B007F140009847B0F100082F
:10AE5000C0F2A480FB68BA69AAEB0B01C91A7B682F
:10AE60004846C91A7B6A98470028C0F29980A844CE
:10AE700008EB00054FF0000B07F1300AB34562D331
:10AE80000021BA697B6A08469847E6E65E464FF0BD
:10AE9000000807F1300099E75E46D8469AE7B046C9
:10AEA00098E719F8021B3F4B19F8015C54F825008C
:10AEB000984202D33C4B98421DD33B6923B1F869B9
:10AEC00022F095FD002891D13B68FBB908F12803D9
:10AED00007F1280208F1010003EB020C07F150030F
:10AEE00053FA80F008F102080CF8101C5FFA88F899
:10AEF00000F8105C7AE73B692BB1F86922F077FD26
:10AF000000287FF473AFBB6FDB0709D506F1280378
:10AF100007F12802711C9E1806F8205CCEB265E786
:10AF2000BB6F58077FF562AF08F1280307F12802CD
:10AF300008F1010103EB020808F8105C5FFA81F8E0
:10AF400054E7002068E71BF80A3087F82F3054F8E0
:10AF50002390FB6FFBB133F81B80BA697B6A012138
:10AF600007F12F00984700281ADB0544B8F1000FBD
:10AF700006D14846FCF740FA00F101081FFA88F8AC
:10AF8000BA697B6A414648469847002808DB054471
:10AF90000BF1010B72E7D7F87C80DEE745465CE6F3
:10AFA00005465AE6884205003CA70500CD7305001A
:10AFB00004000001A4470500014B1860704700BF62
:10AFC0003004002080B505460E461746984621F00D
:10AFD00039FE034629F04EF9DFF81890044649F887
:10AFE0000030424630463946A84754F8090003F07D
:10AFF00025FD00BF080000002DE9F047058B044641
:10B000002807904611D4022905F0070540F0CD80AD
:10B01000204622F081FF78B10138218B042811D815
:10B02000DFE800F0C3106D85950001290CBF45F0E5
:10B03000100545F02005258388F31188BFF36F8F35
:10B04000BDE8F08701F0070AAA4500F0A6800027B6
:10B05000B9463E46A368002B00F0BD8041F00801D0
:10B06000218388F31188BFF36F8FA168002900F056
:10B07000BB800D68002900F0B780D1F8048033460A
:10B0800052462046C047002D76D02B6829461D46E3
:10B09000F0E701F007035A1F012A1BD8002221F014
:10B0A0000701062B276889B2C4E9002209D13B4673
:10B0B00003E0628B013262831B68002BF9D141F0FF
:10B0C00002012183204622F027FF00287BD041F097
:10B0D000200177E0042B0AD121F0070189B22183F6
:10B0E000204622F019FF10B141F020012183218B6D
:10B0F00001F0070AAA4550D00027B946AAE72369FC
:10B1000021F0070141F00601062DD3F800902183BC
:10B110002DD1B9F1000F40D041F00801218388F30F
:10B120001188BFF36F8F3A492046C84729E021F0C4
:10B130000701236941F0040189B2042DD3F804907A
:10B140002183E6D000273E464FF0040A82E721F033
:10B150000701236941F0050189B2052DD3F8089054
:10B160002183D6D000273E464FF0050A72E700271C
:10B170003E464FF0060A6DE72B4687E7B9F1000F10
:10B18000D1D14FF02003EFF3118883F31288BFF37E
:10B190006F8F238B23F008032383258BEA062ED59C
:10B1A00025F01003238305F007056669218B002E27
:10B1B000BFF66FAF00232768C4E9003321F0070111
:10B1C00041F001012183218B01F0070AAA454FF0CC
:10B1D00000097FF43FAF002F9BD041F0080121838D
:10B1E00088F31188BFF36F8F002FC7D03D683946B1
:10B1F00033465246204622F0BBFE2F46F4E7AB060C
:10B200007FF51AAF25F02003238305F00705FFE63D
:10B210009DDF040008B504464FF02002EFF31183D0
:10B2200082F31288BFF36F8F1EF040F8204603F0C0
:10B2300049FF034822F07BFC03F070FDFCE700BFF0
:10B24000817405001EF05CB82DE9F7430F460646F1
:10B250000821C06ADFF8509023F022FB3C68241AD2
:10B2600080463C6004EA0905AC4203D8002003B0E4
:10B27000BDE8F08308236A462146304623F080FA71
:10B280000028F4D16946304623F014FB40B1BDF8E4
:10B290000230BDF804203C6005EA090513441D4452
:10B2A000A4EB0804E0E700BF0000FFFF2DE9F04F2A
:10B2B0008FB0044600AF00F11408404628F0F1F8C2
:10B2C000A06A8368DB689847E06288B98D4B7B632E
:10B2D00002238D483B6307F130024FF482516FF037
:10B2E000150523F0DAFA28463C37BD46BDE8F08F55
:10B2F000A06A8368DB6898470368013B1F2B01D96C
:10B30000824BE4E7A06A216807F1140227F0C2FC2F
:10B3100008B17F4BDBE7A5892DB1BB69B5FBF3F223
:10B3200003FB12550DB17B4BD1E7E389012B01D80B
:10B33000794BCCE7E36A3D6093F804A04FF0FF330C
:10B340004FF0FF32404620F0F9FEE06A082123F07A
:10B35000A7FAA9460646E3891FFA85FB5B4508D88C
:10B36000E3894B4523D1404620F062FF6FF02C0566
:10B37000B9E7A1892B04891B13FA81F152460823EE
:10B380002046396023F04AFA78B13946204623F046
:10B3900005FA09F1010939680823524620461FFAC7
:10B3A00089F923F03BFA0028DAD00135D3E75B4571
:10B3B0000BD1396808235246891B204623F02EFA08
:10B3C00018B93946204623F0E9F939462046FFF7F7
:10B3D0003BFF054618B1404620F02AFF83E73B6853
:10B3E00063604FEA13494FEA0949C4F80890D4E969
:10B3F000011399420FD308233A1D204623F0C0F9C8
:10B4000005460028E7D13B1D13F8012B924544D196
:10B410000135082DF8D163681B0C1B043946204602
:10B420003B6023F0BBF9A38939685246204623F0DC
:10B43000F5F9051ECFDB636800F0828006EB030997
:10B440004FF6FF7AA389C7F800901FFA89F29B1B79
:10B450009A423CD3314B7B6302232B483B6307F179
:10B4600030024FF4865123F018FA2046616823F029
:10B47000FAF905460028AED16368294AA18913402C
:10B480000B44A3EB460363601340A360204623F004
:10B49000F5FA0546002D6FD09DE7391D204623F0B3
:10B4A00009FA626810B9921B6260A0E73D89F988C9
:10B4B000E06AC4F80890294423F0F2F94844904225
:10B4C000A060F0D1002DEED06FF01C059CE00823A9
:10B4D00007F10C024946204623F052F905460028A0
:10B4E0007FF479AF07F10C01204623F0E3F930B186
:10B4F000BB89534503D13B8A002B00F08B80B144BC
:10B50000A0E700BFBE740500BC470500E07405005D
:10B51000FD74050015750500297505008675050083
:10B520000000FFFF5B1A5246204623F077F9051E04
:10B53000FFF651AF08D0E26AA36812681344A36013
:10B54000D4E901318B42EDD86168A38901EB460251
:10B550009A429FD1DFF80091A36801EA0902934261
:10B5600098D0204623F07FF9054600287FF433AFBA
:10B57000636803EA0903A360A389A288A3EB4603D7
:10B580009A423DD0404620F053FE0123E84688B061
:10B590002374E289A3896D462A49EB612E464FF058
:10B5A0000409C5E9051246F8109F274832464FF4B2
:10B5B000035123F072F9C5466368AD46234A6A61B8
:10B5C0001A0C9BB2AA61EB611F48C5F81090324675
:10B5D0004FF4035123F061F9C546A368AD461C4AF8
:10B5E0006A611A0C9BB2AA61EB61C5F8109016480B
:10B5F00032464FF4035123F050F90025C54672E658
:10B60000204623F024FA0546404620F011FE002D86
:10B61000BBD068E60F4B7B6302233B6307F130022C
:10B6200009484FF4865123F038F963681B0C1B045A
:10B63000394620463B6023F0B1F83968204623F0B4
:10B6400012F926E74C750500BC4705006375050037
:10B6500075750500AD7505000000FFFF2DE9F04F81
:10B660001D46037C8DB00446894690467BB9674BE6
:10B670000B93674802230AAA4FF482516FF00C061D
:10B680000A9323F00AF930460DB0BDE8F08FC26A84
:10B690000821104623F004F929468246104623F07B
:10B6A000FFF8A389A3EB8A03AB420746C0F0AA8048
:10B6B0001DB1B8F1000F00F0A5806368039304AAE0
:10B6C00003A92046DDF80CB023F02CF9064600282B
:10B6D000D9D1BDF810304B4505D06268039B9A4222
:10B6E000EDD1E5B9CFE704A9204623F0E3F800281F
:10B6F000F3D0BDF81200BDF8143075B1AB420ED1D5
:10B700004FEA1B41090401442B464246204623F0E0
:10B7100052F8002803DC0646B5E7002BB3D0002F13
:10B720003DD104F1140301934FF0FF320198DFF88B
:10B73000E4B04FF0FF3320F001FDE3899E425ED07C
:10B74000D4E90123F9188A422CD3ADF81A3006A89F
:10B75000FF238DF81E30ADF81890ADF81C5023F083
:10B7600054F8A1682B464246204623F025F9294685
:10B770008246E06A23F094F8A2680244A260BAF11B
:10B78000000F07D106A9204623F050F9002814BF66
:10B790008246AA46019820F04BFD564673E757446F
:10B7A000BFB2BEE7E06A082123F07AF84FF6FF73D4
:10B7B000ADF8183000218DF81E30A389ADF81C10AB
:10B7C000111802EA0B021A44101A606006A8ADF8BC
:10B7D0001A1023F01AF806A9204623F027F9211D94
:10B7E000204622F0DBFF636803EA0B03A3602046D8
:10B7F00023F044F982460028CCD101369DE76FF052
:10B800001B0AC7E76FF015063DE700BFAA740500E5
:10B81000BC4705000000FFFF2DE9F0471E4688B039
:10B82000037CBDF8409004460F46904673B92F4BF9
:10B830002F48079306AA02234FF48251069323F060
:10B840002CF86FF00C0008B0BDE8F087C06A082142
:10B8500023F026F8A389A3EB4003B34243D3D4F8E3
:10B8600004A0CDF804A000254D455146DDF804A004
:10B8700009D9636853451ED1BDF80830BB421AD0C0
:10B880006FF00100DFE702AA01A9204623F04AF881
:10B890000028D8D1BDF80830BB4206D102A9204605
:10B8A00023F008F808B10135ADB26268019B9A42F5
:10B8B000DAD15146E0E7BDF80C30002BE0D0A945C5
:10B8C000DED8BDF80A00090CB3424FEA014128BF97
:10B8D000334601444246204622F052FF0028B2D1AE
:10B8E000BDF80C00AFE76FF01500ACE7AA740500D7
:10B8F000BC4705002DE9F047DFF8588004460746AD
:10B900004FF0010914B93846BDE8F08794FAA4F560
:10B91000B5FA85F509FA05F32E0108EB05156FEA6E
:10B92000030A24EA03042B7B002BEBD058F80630E3
:10B930001B694BB94644042273682846196807EA14
:10B940000A0700F05DFADDE7284698470028D9D1BC
:10B95000F0E700BF4448050030B51049104889B0F1
:10B96000002228F0F6F80F4D0F494FF40042002353
:10B97000CDE9062300240E23CDE90334CDE90144AB
:10B980000A4B00944FF44072284620F0AFFA084961
:10B99000284627F06BFD204609B030BDB5B902003E
:10B9A0001834002048130020A86F0020A5BC020016
:10B9B000C9750500014820F0ABBC00BF300F002066
:10B9C0002DE9F04780461F480F4623F043F906460D
:10B9D000002830D000252846BDE8F087237B73B1CE
:10B9E0002368DB680BB12046984723681B69D3B9ED
:10B9F000636804221968204600F002FA0136103408
:10BA00004C45EBD3B8F1000FE5D0002DE2D028462D
:10BA1000FFF770FF0546002FF7D000214FF4A47008
:10BA200021F0DCF8F1E7204698470028E0D00AFA38
:10BA300006F31D43E2E7044CDFF8109005464FF093
:10BA4000010ADDE7B84200204448050054480500DB
:10BA5000014B53F820007047FC4B050008B5034626
:10BA600008462BB1044A136000F080FC002008BD9A
:10BA70006FF01500FBE700BF3404002010B5044C44
:10BA8000237813B9034820F043FC0123237010BD31
:10BA900033680020300F002010B50446084823F01A
:10BAA000D9F85CB1BFF35B8F064B53E8001F013937
:10BAB00043E80012002AF8D1BFF35B8F10BD00BF2E
:10BAC000B0420020B44200200020064BBFF35B8F41
:10BAD000014653E8000F43E80012002AF9D1BFF3F2
:10BAE0005B8F7047B042002070B5FFF7EDFF084C48
:10BAF000084E0546B44200D370BD63685B792BB134
:10BB000023685B6813B12946204698471034F1E753
:10BB1000444805005448050010B5044C044920462B
:10BB200022F0D3FC034B1C6010BD00BF540D00205D
:10BB3000E84B0500A8420020084A094808B5002340
:10BB40001370084A1360084A4FF400411360FFF76E
:10BB500085FFBDE80840FFF7DFBF00BF3468002065
:10BB600051EC0400B0420020B44200200146002203
:10BB70000148002322F0CABC540D0020014822F0E5
:10BB800063BD00BF540D0020024B0146186822F02F
:10BB9000ADBD00BFA8420020014822F0E3BD00BFB8
:10BBA000540D002070B5284B187800284BD0FFF7B3
:10BBB000E5FF054690B1BFF35B8F244B53E8001FB0
:10BBC000013943E80012002AF8D1BFF35B8F204C03
:10BBD000204EB4422DD32846FFF7D6FF1E4B1F4CF4
:10BBE0001B68002B19DD27F06DFF4FF47A72A0FB64
:10BBF000020302FB0131C30BD4E9002043EA4143B5
:10BC00009B1A4FEAD13140F2E93261EB00019342D5
:10BC100071F1000101D3FFF767FFD4E9003213F59A
:10BC20007A7342F10002C4E90032BDE87040FFF7C8
:10BC3000B3BF63685B7923B1236829461B6820463C
:10BC400098471034C5E770BD33680020B442002027
:10BC50004448050054480500B0420020103400203C
:10BC600070B50D4D297861B90120FFF7A9FE0B4C85
:10BC70000B4EB44206D3FFF795FF0028FBD10123FA
:10BC80002B7070BD63685B791BB1236820469B688D
:10BC900098471034EDE700BF3468002044480500A1
:10BCA0005448050000212DE9F0470846FFF788FEBB
:10BCB000044658B340F267684FF0000928F0DAFAFA
:10BCC0001B4B1C4A1B58136033B11B4B1B68092BC1
:10BCD00002DD1A4820F01CFB194FDFF860A0002598
:10BCE00044B12046FFF706FE044618B94FF0FF386E
:10BCF0004FF0FF39FFF756FF064628B9B5B942465F
:10BD00004B46504620F02AFB3546E9E74FF0FF3816
:10BD10004FF0FF39D2E72B689B691BB10022114617
:10BD2000284698471035BD42F5D3E8E7054DFAE7B8
:10BD300008000000AC420020B4420020300F002078
:10BD4000544805004448050013B5184822F082FF06
:10BD5000174B1B787BB14FF02003EFF3118483F373
:10BD60001288BFF36F8FFFF71DFF84F31188BFF3B5
:10BD70006F8F02B010BD0F4B1B68002BF9D050B96C
:10BD800000220023CDE900230B4840F6CD420023DA
:10BD900021F0A0F9EDE70928EBD1074827F0E5FEEF
:10BDA000064802B0BDE8104020F0B2BAB44200200C
:10BDB00034680020AC42002018340020300F0020EE
:10BDC00010B5064B1B68044698472146A0600448FE
:10BDD00022F01AFCBDE81040FFF7B6BF3404002083
:10BDE000540D0020044A054B9B1AB1EBD30F34BF0E
:10BDF00052F8310000207047EC4605004448050029
:10BE0000084BC31A10B41B114468013323714368F3
:10BE10009A7143681960436801225A715DF8044BB6
:10BE2000FFF72CBE444805002DE9F04F8FB004AF5A
:10BE3000C1F34A28B8600D4691467B600C0DB8F1FD
:10BE4000000F63D0002607F114034FF0040B4FF0EE
:10BE50000A0AC7F80C80C7E907667E620193CDF82D
:10BE600008B0CDF800A007F11C03F9683246484637
:10BE7000FEF7CAFEB0F5006F03461CD36C468AB0CD
:10BE8000D9F8041004AB2648C3E9050140F2FF715C
:10BE9000D9611A464FF400711984224B42F8103FC1
:10BEA000214833464FF41251FFF7BEFFA5462C3709
:10BEB000BD46BDE8F08FC0F30A0804F1170018442E
:10BEC00020F0070080083B60FFF750FE68F3532521
:10BED000044690B13B68154AC7E9083600F11001E5
:10BEE00007F11403F961CDE900A3CDF808B0F968B2
:10BEF00007F11C034846FEF787FE68F353257B686D
:10BF0000B9682A46204622F0DBFED0E704F117008C
:10BF100020F007008008FFF729FE0446EDE700BF88
:10BF2000DE75050004000001CC47050095EC040017
:10BF30002DE9F04F87B0DDE91269DDE9105A0446BA
:10BF40000F4693469846A6B31021CDF8009033468D
:10BF500052460020CDF81490FEF784FC014605F10E
:10BF600017000844144B039104F007040BF0070B6F
:10BF7000E40020F0070003EA412344EA8B14800820
:10BF80001C43FFF7F3FD44EA0554054640B13EB1BA
:10BF90000399CDF80090334652461030FEF762FC0C
:10BFA000434622463946284607B0BDE8F04F22F006
:10BFB00087BE3146D3E700BF00FE0F000EB403B5C5
:10BFC00003AB014653F8042B0448019303F034F803
:10BFD00002B05DF804EB03B0704700BF27ED04002A
:10BFE000CA0605D48B064CBF02490349FFF7E6BFDA
:10BFF000704700BF1E7605001D7605002DE9F04F45
:10C000008BB09A46DDE916739DF854B00693189BE1
:10C01000199E089204460D460593BBF1000F00F0EF
:10C02000858006F00103099306F00803079322F0C8
:10C030002FFE06F002090246002847D08449204618
:10C04000FFF7BCFF8046B9F1000F08D016F0440F8F
:10C050003ED180492A462046FFF7B0FF8044099B25
:10C0600053B17D4B7D4953F82B207D4B2046002A50
:10C0700008BF1A46FFF7A2FF079B002B54D0794B4D
:10C08000794953F82B202046FFF798FF0546089B77
:10C090002BB176491A462046FFF790FF0544BAF1C6
:10C0A000000F05D0724952462046FFF787FF05442E
:10C0B0004544002F48D1059B002B4ED1F30700F1DA
:10C0C000C08031462046FFF78BFFB4E08046BAE7D8
:10C0D000684B18680028C1D0674B4FF47A791B6809
:10C0E000B5FBF3F54FF46161B5FBF0F300FB1355BD
:10C0F00009FB05F54FF03C0CB3FBF1F201FB1231EB
:10C10000B5FBF0FEB1FBFCF300FB1E550CFB13115D
:10C1100009FB05F50091B5FBF0F55849CDE901E5BE
:10C120002046FFF74BFF99E7079DB0E7BAF1010FF3
:10C1300006D1002F65D1059B002B7CD000250CE09B
:10C14000002FF8D04E485DE04E484F493B4622460E
:10C1500021F01CFC059B002B69D0DFF84081DFF843
:10C160004091059F3146102F204628BF1027FFF72A
:10C1700037FF4FF0000A554546DC069B49461A78C2
:10C180002046FFF71BFF4FF0010A1AF0070F03D1FB
:10C1900041462046FFF712FF57453CD9069B4946CA
:10C1A00013F80A202046FFF709FF0AF1010ABAF145
:10C1B000100FEAD1354920464FF0000AFFF7FEFE86
:10C1C0005246069B9A5C324B995C11F0970F08BF60
:10C1D0002E2230492046FFF7F1FE0AF1010ABAF19A
:10C1E000100F1DD01AF0070F03D141462046FFF76C
:10C1F000E5FE57455246E4D841462046FFF7DEFEAD
:10C20000EBE720485D46A0E741462046FFF7D6FE13
:10C210000AF1010AAFE720492046FFF7CFFEC4E745
:10C22000069B3B440693059BDB1B059399D1BBF111
:10C23000000F7FF443AF20460BB0BDE8F04F22F073
:10C2400065BD074A05492046FFF7B8FE39E700BF3C
:10C2500025760500297605000C4C0500938705001E
:10C2600020760500204C05004E760500547605002A
:10C27000B1720500C0420020BC42002032760500A9
:10C280005DED040027ED040039F002006276050040
:10C29000E4A50500647605005E760500607605007D
:10C2A000587605002DE9F0410F884B688E6886B0FE
:10C2B00005460C469046C7F382175BB1144A9B1A99
:10C2C00043F3CF01002920DB2078C0F3C200FFF741
:10C2D00089FD03462146608851F8102B0197C2F36F
:10C2E0004A22002A01EB0204C0F30B1008BF002110
:10C2F0000022CDE90408CDE9021400923146284617
:10C30000FFF77CFE06B0BDE8F0810023E2E700BF46
:10C31000EC46050073B542F20F738B4228BF0B4603
:10C3200005680F4A04460521684620F0ABFF6368A4
:10C330000C495B6806460B22284622F0DAFC63684B
:10C340003246694628465B6822F0D3FC636806499A
:10C350005B681B22284622F0CCFC02B070BD00BFF7
:10C3600090A405008376050067760500074A002142
:10C370000123904206D8064A01B901231360054BF8
:10C380001860704740085B000121F2E740420F004F
:10C39000BC420020C0420020014B002019607047C1
:10C3A000D8420020024B034801221A7022F0AEBC92
:10C3B00036680020504C05000148FFF7ABBF00BFB6
:10C3C000504C050010B5064B18680C46FFF740FBB3
:10C3D00021460346BDE8104002480F22184700BF1F
:10C3E000D8420020504C0500F8B5074F0D460446D2
:10C3F0004618B44201D12846F8BD14F8011BBB68A9
:10C4000001485B689847F4E724440500014B03604A
:10C4100000207047604C050070B5114B1C680D463C
:10C42000DCB1104B196800238B4202DB6FF0010076
:10C4300070BD224612F8106B864202D001331446BA
:10C44000F2E7E06810B96FF01200F1E726F04BFF59
:10C450000028F8D02C600020EAE76FF00C00E7E736
:10C4600038040020604C050070B588B005460C46C5
:10C47000C0B269461646FFF7CFFF00281BDB0098C5
:10C48000C8B143680293836822680195CDE90336F9
:10C490000023CDE906230593C56822F06EFC6DB13B
:10C4A0002846084901AA26F0F9FB079808B9059B18
:10C4B000236008B070BD6FF01500FAE76FF012004E
:10C4C000F7E700BF7DED0400F0B40C4B0C4E5F6A43
:10C4D0000C4BB34203D36FF08500F0BC70475D682E
:10C4E000BD4209D31C693CB195F802C00579AC4541
:10C4F00002D12346F0BC18472433EAE7DC4200208F
:10C5000074110020501100202DE9F047134CDFF882
:10C510005080DFF8509005460E461746444503D339
:10C520006FF08500BDE8F0876268D9F824309A4240
:10C5300012D3A36983B190782979884205D13A460C
:10C5400031462846BDE8F04718475279012A03D101
:10C550003A463146284698472434DFE750110020F8
:10C5600074110020DC4200202DE9F0410B4CDFF873
:10C57000308005460E461746444502D36FF08500CD
:10C5800009E063690BB92434F6E73A463146284698
:10C5900098470028F7D1BDE8F08100BF5011002076
:10C5A00074110020024B00221A605A60704700BFCD
:10C5B0009743002070B50B4B0B4CA34201D30020D6
:10C5C00070BD196A1E7F00220439D5B2AE4201D86F
:10C5D0002433F2E7013211F832508542F5D10120BF
:10C5E000EEE700BF501100207411002008B5094883
:10C5F0000378C3F341130A3350F823303BB100F101
:10C60000080200F110019847C043C00F08BD18464A
:10C61000FCE700BFDC4200207FB5074B05930748CD
:10C62000022304AA4FF48251049322F0C9FB4FF075
:10C63000FF3007B05DF804FBC97605002C48050003
:10C6400080B500AF88B06A46064BC2E905300323C7
:10C6500042F8103F04484FF4C25122F0B1FB0020D1
:10C66000BD4680BDEE7605002C480500F8B500AF4C
:10C67000054626F089F910F1780F04461AD16C4668
:10C6800088B06A46154B1648C2E90535032342F8BF
:10C69000103F4FF4C45122F093FBA546284622F0E8
:10C6A00092FB104AD2F8C43023EA0003C2F8C43027
:10C6B000002410E00028F1D06E4688B06A460A4B8C
:10C6C0000748C2E90535032342F8103F4FF4C25131
:10C6D00022F076FBB5462046BD46F8BD0977050039
:10C6E0002C480500DC4200202A77050004282DE9AB
:10C6F000F74FDFF8A49004460F4615D001282FD13C
:10C70000DFF8908098F8B93053B300F081FF204DE6
:10C710004D4522D22A6A4FF0000A2B7F5FFA8AF633
:10C72000B34204D82435F3E7FFF73CFFE8E702EB18
:10C73000C6060192307926F027F98346307922F037
:10C7400042FBD8F8C430019A23EA0003BBF1000F82
:10C75000C8F8C4300AF1010ADFDA002388F8B930DA
:10C760000B4D4D4508D30B4B1B6A6BB13946204628
:10C7700003B0BDE8F04F1847EB681BB13A462146BD
:10C78000284698472435ECE703B0BDE8F08F00BF9A
:10C7900050110020DC42002074110020F0B583B05D
:10C7A000C4B200AF63060D46FC7107D02046FFF708
:10C7B00001FFE8B11C4B93F8BA00C8B11A4ED5B1CD
:10C7C0006D4688B06A46194B1948C2E905340323FF
:10C7D00042F8103F4FF4C65122F0F2FAAD46F87914
:10C7E0001AF028F9F36913B1F91D082098470120C0
:10C7F0000C37BD46F0BD6D4688B06A460D4B0C48FF
:10C80000C2E90534032342F8103F4FF4C65122F029
:10C81000D7FAAD46F8791AF035F9F369002BE6D06E
:10C82000F91D0920E2E700BFDC4200204C7705003B
:10C830002C4805005F770500F0B583B000AF0446D3
:10C840008078387023796279364D43EA02237B8001
:10C85000E37803F003033B7122F0B5FAD5F8C43056
:10C86000184206460CD0A478204600F0B3FE2046BD
:10C87000FFF7FCFE26F0F4FD10B9962020F0C8F971
:10C8800038461AF0B3F810F1780F3B782DD16C468A
:10C8900088B06A4624492548C2E90513032342F8B3
:10C8A000103F4FF4C45122F08BFAA54638781AF0A5
:10C8B00025F910F1780F2DD16C4688B03B786A4687
:10C8C0001B491A48C2E90513032342F8103F4FF4ED
:10C8D000C45122F075FAA546D5F8C430012033437F
:10C8E00085F8B900C5F8C43011E00028DED06C46E8
:10C8F00088B06A460F490D48C2E90513032342F880
:10C90000103F4FF4C25122F05BFA0020A5460C37CD
:10C91000BD46F0BD0028DFD06C4688B03B786A4643
:10C920000549E8E7DC420020747705002C48050043
:10C93000BB77050097770500DB7705002DE9F04709
:10C94000A34EB36904460F461546FBB9237803F09E
:10C950001F03012B00F09D80022B00F0048133BBEC
:10C9600094F900002A686178002834DA062912D088
:10C9700008292BD0D9B901231370517096F8C33010
:10C980005B0043F00103137002232AE1984700285B
:10C99000DCD100200DE06288100A011F01298446C5
:10C9A00005D9072803D8716AD2B20C781CB96FF088
:10C9B0001500BDE8F0874E78664503D19A4200F035
:10C9C0000B8101332144F0E70B780AE196F8BA3085
:10C9D0001370012305E101390829E8D801A353F8B0
:10C9E00021F000BF7DCA0200AFC902008BCA02005D
:10C9F000AFC9020009CA0200AFC90200AFC90200F4
:10CA0000AFC9020015CA0200A07819F0DDFF0028A6
:10CA1000BFD0CCE76388756A63BBFFF7C3FD63884B
:10CA200086F8BA30F369002BB3D06A4903209847DF
:10CA3000AFE76B78042B10D0052B11D0022B04D15B
:10CA40006F796388BB4208BF01202B781D442B7887
:10CA5000002BEED10028AAD0DFE795F80380F4E799
:10CA60006388BB42F1D1B8F1000FEED12846FFF741
:10CA7000E3FEEAE7FF270020B846E8E76388012BDA
:10CA800095D1002386F8C33083E76388012B8ED1CC
:10CA9000F8E796F8BA30D5F800C0002B87D0756A51
:10CAA000A38894F804E02A46107800283FF47FAF6A
:10CAB0005178022904D192F80480F04500F2938065
:10CAC0000244F1E78CF800208CF80120396060E71F
:10CAD000154494E00B2A7FF46AAF00274FF0FF085B
