:020000022000DC
:10700000A8F70020316C030011DF0500056C0300B8
:10701000056C0300056C0300056C03000000000014
:10702000000000000000000000000000556D03009B
:10703000056C030000000000C16C0300056C030038
:10704000756F030099FA0400756F0300756F0300F4
:10705000756F0300756F0300756F0300756F030094
:10706000756F0300756F0300756F0300756F030084
:10707000756F0300756F0300756F0300756F030074
:10708000756F0300756F0300756F0300756F030064
:10709000756F0300756F0300756F0300756F030054
:1070A000756F0300756F0300756F0300756F030044
:1070B000756F0300756F0300756F0300756F030034
:1070C000756F0300756F0300756F0300756F030024
:1070D000756F0300756F0300756F0300756F030014
:1070E000756F0300756F0300756F0300756F030004
:1070F000756F0300756F0300756F0300756F0300F4
:1071000081F0004102E000BF83F0004330B54FEA58
:1071100041044FEA430594EA050F08BF90EA020FC5
:107120001FBF54EA000C55EA020C7FEA645C7FEA58
:10713000655C00F0E2804FEA5454D4EB5555B8BF7B
:107140006D420CDD2C4480EA020281EA030382EAEC
:10715000000083EA010180EA020281EA0303362D7E
:1071600088BF30BD11F0004F4FEA01314FF4801C51
:107170004CEA113102D0404261EB410113F0004F63
:107180004FEA03334CEA133302D0524263EB43031A
:1071900094EA050F00F0A780A4F10104D5F1200EB8
:1071A0000DDB02FA0EFC22FA05F2801841F1000113
:1071B00003FA0EF2801843FA05F359410EE0A5F1E7
:1071C00020050EF1200E012A03FA0EFC28BF4CF018
:1071D000020C43FA05F3C01851EBE37101F00045CE
:1071E00007D54FF0000EDCF1000C7EEB00006EEBDB
:1071F0000101B1F5801F1BD3B1F5001F0CD3490865
:107200005FEA30004FEA3C0C04F101044FEA4452BB
:1072100012F5800F80F09A80BCF1004F08BF5FEA42
:10722000500C50F1000041EB045141EA050130BD22
:107230005FEA4C0C404141EB0101013C28BFB1F534
:10724000801FE9D291F0000F04BF01460020B1FA7F
:1072500081F308BF2033A3F10B03B3F120020CDA52
:107260000C3208DD02F1140CC2F10C0201FA0CF030
:1072700021FA02F10CE002F11402D8BFC2F1200C95
:1072800001FA02F120FA0CFCDCBF41EA0C0190404B
:10729000E41AA2BF01EB0451294330BD6FEA040494
:1072A0001F3C1CDA0C340EDC04F11404C4F120027F
:1072B00020FA04F001FA02F340EA030021FA04F391
:1072C00045EA030130BDC4F10C04C4F1200220FAE8
:1072D00002F001FA04F340EA0300294630BD21FA26
:1072E00004F0294630BD94F0000F83F4801306BFEC
:1072F00081F480110134013D4EE77FEA645C18BFE0
:107300007FEA655C29D094EA050F08BF90EA020F76
:1073100005D054EA000C04BF1946104630BD91EA6E
:10732000030F1EBF0021002030BD5FEA545C05D171
:107330004000494128BF41F0004130BD14F58004B0
:107340003CBF01F5801130BD01F0004545F0FE4124
:1073500041F470014FF0000030BD7FEA645C1ABF59
:10736000194610467FEA655C1CBF0B46024650EA90
:10737000013406BF52EA033591EA030F41F40021BC
:1073800030BD00BF90F0000F04BF0021704730B542
:107390004FF4806404F132044FF000054FF0000117
:1073A00050E700BF90F0000F04BF0021704730B5D8
:1073B0004FF4806404F1320410F0004548BF4042AD
:1073C0004FF000013EE700BF42004FEAE2014FEA02
:1073D00031014FEA02701FBF12F07F4393F07F4FDD
:1073E00081F06051704732F07F4208BF704793F0E0
:1073F0007F4F04BF41F40021704730B54FF46074F3
:1074000001F0004521F000411CE700BF50EA0102F5
:1074100008BF704730B54FF000050AE050EA01029E
:1074200008BF704730B511F0004502D5404261EB0E
:1074300041014FF4806404F132045FEA915C3FF44F
:10744000D8AE4FF003025FEADC0C18BF03325FEAEC
:10745000DC0C18BF033202EBDC02C2F1200300FA9D
:1074600003FC20FA02F001FA03FE40EA0E0021FAC2
:1074700002F11444BDE600BF4FEA4102B2F1E0431D
:1074800024BFB3F5001CDCF1FE5C0DD901F0004C0B
:107490004FEAC0024CEA5070B2F1004F40EB83005B
:1074A00008BF20F00100704711F0804F21D113F187
:1074B0003872BCBF01F00040704741F480114FEAC0
:1074C0005252C2F11802C2F1200C10FA0CF320FA49
:1074D00002F018BF40F001004FEAC1234FEAD32366
:1074E00003FA0CFC40EA0C0023FA02F34FEA4303D0
:1074F000CCE77FEA625307D150EA01331EBF4FF059
:10750000FE4040F44000704701F0004040F0FE4073
:1075100040F40000704700BF53B94AB9002908BFC2
:1075200000281CBF4FF0FF314FF0FF3000F00CB8C7
:10753000ADF1080C6DE904CE00F008F8DDF804E0C8
:10754000DDE9022304B07047704700BF2DE9F04722
:1075500086468C460846089E154674461946002BFA
:1075600040F0C2808542B2FA82F245D94AB1C2F1F6
:10757000200300FA02FC2EFA03F3954043EA0C0CB8
:1075800094404FEA154EA8B2BCFBFEF8230C0EFB4C
:1075900018CC08FB00F943EA0C43994528D9EB18AD
:1075A00008F1FF3704D2994502D9A8F102072B440C
:1075B000A3EB0903A4B2B3FBFEFC0EFB1C330CFBD4
:1075C00000F044EA0344A04214D92C190CF1FF3313
:1075D00004D2A04202D9ACF102032C44241A43EA9B
:1075E00007401EB1D440002334607360BDE8F087CB
:1075F0004746DDE76346F1E792BB431B01214FEAB3
:10760000154EAFB2B3FBFEFC200C0EFB1C330CFB83
:1076100007F840EA0343984562D9EB180CF1FF30B4
:1076200004D2984502D9ACF102002B44A3EB080325
:10763000A4B2B3FBFEFC0EFB1C330CFB07F744EAC1
:107640000344A7424ED92C190CF1FF3304D2A742B0
:1076500002D9ACF102032C44E41B43EA0040C0E72A
:10766000C2F1200320FA03F1954090402EFA03F373
:1076700003434FEA154EAFB2B1FBFEFC0EFB1C10EC
:10768000190C0CFB07F841EA0041884504FA02F4A2
:1076900022D969180CF1FF3004D2884502D9ACF127
:1076A00002002944A1EB08019BB2B1FBFEFC0EFBDA
:1076B0001C110CFB07F743EA01439F420ED9EB185C
:1076C0000CF1FF3104D29F4202D9ACF102012B44EC
:1076D000DB1B41EA004192E76046E3E76146F7E7DA
:1076E0006046A3E76346B7E7834206D916B900218F
:1076F00008467BE7C6E900E0F9E7B3FA83F78FB9FC
:10770000834201D3724508D8BEEB020460EB030349
:1077100001209C461EB9002168E73846FAE7C6E911
:10772000004CF8E7C7F1200CBB4022FA0CF41C43D4
:107730002EFA0CF120FA0CF3B84001434FEA144939
:107740000EFA07F5B3FBF9F81FFA84FE09FB1830AF
:107750000B0C08FB0EFA43EA00439A4502FA07F2C3
:1077600040D9E31808F1FF3004D29A4502D9A8F1B4
:1077700002002344A3EB0A0389B2B3FBF9F809FB27
:10778000183308FB0EFE41EA03418E452CD96118DF
:1077900008F1FF3304D28E4502D9A8F10203214437
:1077A00043EA0040A0FB0298A1EB0E014145CE4602
:1077B000434602D306D14D4504D2B9EB020E68EB25
:1077C00004030138002EA6D0B5EB0E0261EB0301D5
:1077D00001FA0CFC22FA07F34CEA0303F940C6E96C
:1077E000003198E74046C5E74346D9E710F8012B3A
:1077F00011F8013B012A28BF9A42F7D0D01A7047EE
:10780000034611F8012B03F8012B002AF9D1704728
:10781000034613F8012B002AFBD1181A01387047D0
:107820002DE9F0414A4D88B0D5F85C31996811F0E6
:10783000010100AF25D107F1080240F6034011F025
:1078400081FA044600287ED1BC68E3681B78ABB996
:1078500013F0B0F9BFF35B8FD5F8D430BFF35B8F73
:1078600005F1D40203F00903BFF35B8F52E8001F58
:1078700042E800300028F9D1BFF35B8F20462BF09F
:1078800015FC07F10802002141F2030011F05AFA39
:107890000446002857D1BB682E4EDA68D2F80100A2
:1078A000D2F8051003C618462BF000FC214607F15C
:1078B000080241F2010011F045FA0446002842D1C5
:1078C000B868C3685A7885F870205A88A5F872207D
:1078D0001A7985F87120B3F80720A5F87420B3F859
:1078E0000530A5F876302BF0E1FB214607F10802C0
:1078F00041F2020011F026FA044620BBD7F80880B6
:10790000D8F80C20531C413218685968344603C417
:10791000083393422646F7D10F4836F0A9FB40467C
:107920002BF0C4FB95F87C305A061BD40B4BFB6143
:1079300002230B48BB6107F118024FF482516FF02C
:10794000120436F085FC20462037BD46BDE8F081A4
:10795000000100207801002080010020A0EC06003A
:107960007431060007F10802002142F2030011F011
:10797000E9F904460028E6D1BB68AB4EDA68D2F8D4
:107980000100D2F8051003C618462BF08FFB2146E4
:1079900007F1080242F2020011F0D4F9044600286F
:1079A000D1D1BC68E368B3F8012091B249B1D9786C
:1079B00039B1A5F80421DA78114606F1280039F02A
:1079C000CAFF20462BF072FB95F87C6016F020066B
:1079D00018D1022140F66D4011F06EF804460028DF
:1079E00000F0CD8002210C3039F0E0F80123037063
:1079F00046702146324640F66D4011F0A3F9044628
:107A00000028A0D195F89C301B0713D507F1080278
:107A1000002142F21C0011F095F90446002892D191
:107A2000B868C368D3F80120D3F80530C5E9382316
:107A30002BF03CFB95F8D8309E0622D5391DB81C9A
:107A400011F002FA044600287FF47DAF042142F2CF
:107A5000240011F031F80646002800F0908004213F
:107A60000C3039F0A3F87B880380BB884380224622
:107A7000314642F2240011F065F9044600287FF4F3
:107A800062AF95F8D8305C0611D507F108020021E5
:107A900042F22A0011F056F9044600287FF453AF51
:107AA000B868C3685B7885F820312BF0FFFA0821AD
:107AB00042F2010011F000F8044600285FD00821CE
:107AC0000C3039F073F895F8D81011F0400F0246D9
:107AD00040F2022308BF032388074CBF43F02C0069
:107AE00043F00C008B0695F8D93048BF40F04000B9
:107AF00013F0090F95F8A23018BF40F4006003F0AE
:107B00000603CE0748BF40F01000062B08BF40F424
:107B1000C070002136F0ABFB2146002242F201008A
:107B200011F010F9044600287FF40DAF95F87C3071
:107B3000B5F80411980625D4D1B907F1080241F22D
:107B4000050011F0FFF8044600287FF4FCAEB5F8FC
:107B50000431BC684BB9E368B3F80120A5F80421EF
:107B60009A883248114639F0F6FE20462BF09EFAEC
:107B7000082140F6014010F09FFF044690B96FF0D5
:107B80006804E0E60029F3D1294BFB610223294870
:107B9000BB6107F118024FF4825136F059FB6FF0C8
:107BA0000404D0E608210C3039F000F895F8D830FC
:107BB000D907024653BF4FF0005119A1D1E9000186
:107BC0001D4836F054FB2146002240F6014011F0DA
:107BD000B9F8044600287FF4B6AE01463A1D4FF6C8
:107BE000014011F0AFF858B3144BFB610223114868
:107BF000BB6107F118024FF4845136F029FB36F0CF
:107C000040FD044600287FF49EAE14F0FDFB0446C0
:107C100000287FF498AE11F0EDFE044693E600BF15
:107C20009088000200800020D80100200802002077
:107C3000C4EC06007431060010880002E7EC060070
:107C40007B68DC68B4F80130032B96BF434A444993
:107C500052F823106D468AB06A464248D3614FF409
:107C600000731384404BC2E9050142F8103F3F48BE
:107C70004FF4135136F0ECFAB4F80120B4F80330A5
:107C8000022AAD4648D1032B46D8394A52F8231070
:107C90006D468AB06A463748D3614FF40073138447
:107CA000314BC2E9050142F8103F4FF413512F4800
:107CB00036F0CEFA6379A679D4F80900032BAD46E5
:107CC00098BF2D4AB4F8075094BF52F823102449A6
:107CD0006C468CB06A46DFF8B4C0C2E907364FF490
:107CE00000739385254BC2E905C1C2E909504FF4E1
:107CF000735142F8103F1D4836F0AAFAA54678683D
:107D00002BF0D4F93A1D00214FF6024011F01AF879
:107D1000044618B11A4B68E71149B9E77868194D5C
:107D2000C368B3F80130A5F8C1302BF0BFF995F85E
:107D3000C1305B077FF563AF3A1D21464FF6034024
:107D400011F000F808B1104B4FE77868C3685B7812
:107D500085F8C0302BF0AAF951E700BFB4820600C5
:107D600005E706000BED0600040000017431060073
:107D7000A482060024ED060094820600070000019C
:107D800069ED06000001002092ED06003CED0600C2
:107D90002DE9F843D0E90C35D0F82C805C1930344B
:107DA000A0450F46164619D81D4DA3FB05011AA381
:107DB000D3E90023FFF7B0FB0346A4EB0800A0FBC8
:107DC000050123F07F4414A3D3E90023FFF7A4FBAC
:107DD00020F07F403C603060BDE8F883DFF84090E1
:107DE0000DA3D3E90023A8FB0901FFF795FB044687
:107DF00005F1300008A3D3E90023A0FB0901FFF738
:107E00008BFB24F07F4420F07F403C603060BDE875
:107E1000F88300BFAFF300808D49FD1A0700000012
:107E200000CA9A3B000000009FED0D7B124B134AE5
:107E30001348144910B483ED007B9FED0B7B82ED5A
:107E4000007B9FED0B7B104B4FF0FF34002281ED48
:107E5000007B04601A605DF8044B1DF029BD00BF73
:107E6000FFFFFFFFFF1F00000000000000000000F8
:107E70001F0000000000000080020020C86D0020EC
:107E8000C49B002078020020BC9B00200000000062
:107E9000002800F05F812DE9F04FB54C94F86A207E
:107EA00012F001058DB040F0A78194F82500FF2362
:107EB00000F0030084F8263027F0CEF894F86A002A
:107EC000420727D494F8292094F8353004EB820235
:107ED00004EB8303D66AD3F8388086B1A4483146D0
:107EE0001FF016FD33785B0605D506211AF0CAFB94
:107EF000002800F083819E4841461FF009FD337839
:107F000013F00E0F40F0B780236A93B10C200DB030
:107F1000BDE8F08F2A4604F16B01C0F3C00027F0E2
:107F200037FAFF2884F82600CCD0284627F0DAF864
:107F3000C8E71CF0A1FD8146002800F071811CF00B
:107F4000A7FD8246002800F0688120F00FF9054661
:107F5000002800F06781D0F888004FF6FF732B856A
:107F600005F11C0B002800F04F8105F1780105F1A7
:107F70007C021AF093FBB5F876307E4A23F4EF6367
:107F800023F0070343F4887343F00103A5F8763028
:107F90001346D2F80120C5F89B21C5F8A12113F89A
:107FA000012B9B88A5F89F31A5F8A53195F89A314A
:107FB00002F0010262F3000362F3410385F89A3193
:107FC00095F8393003F03F0363F07F0385F83930CB
:107FD00095F88E3023F0070385F88E3095F83C3005
:107FE00023F00703002785F83C304FF4C023C5F881
:107FF00088312846C5E91277C5F88870A5F88C70D5
:108000006F86C5F82E7085F83B702F65A5F88E71C8
:10801000A5F8847122F078FE85F85071C5F8549166
:1080200020F062FB95F8943160F3020385F89431F7
:1080300020F060FB95F8943160F3C50385F8943126
:1080400095F8803167F3410385F880310121284696
:1080500020F0B0FF05F1D40022F0DEFBC4E9189A4D
:10806000C4F820B0C5E905772F70ED6128F0C2FA99
:10807000002840F0C58094F824300121C3F3420366
:108080000DF12B008DF82B301AF0A6FC02460028CB
:1080900062D098F8011030461FF0FCF931233649C0
:1080A000A360364BB4F86870A0FB01010025C0182E
:1080B00041F107012CA3D3E90023C4E9055525703C
:1080C0006560E560FFF728FA20611BF0B9FF00F159
:1080D00009083FB9357805F00F05A5F10105B5FA96
:1080E00085F56D0994F82400236965F3000010F00C
:1080F000010584F824004BD0214A09920020106029
:108100000225204A204F04930BAE019305920321D0
:10811000CDE90200069443460090089607972A4648
:108120000B951BF02BFE31461CF06CFDA0B91749D6
:1081300005914AF2D8330093CDE90300CDE901005F
:108140000797089606944346012203210B951BF0DE
:10815000E1FD43E01FF0EAB8236A002B3FF4D6AEFE
:108160001FF0A2F8D2E600BF8D49FD1A07000000FB
:108170007C9C0020A2E4060000CA9A3B8C49FD1AB0
:10818000709C002011750400CD410400257004008E
:108190002B4A2C48049303F247130694029591212D
:1081A0001360A7FB000301FB0731274B0793274B05
:1081B00005934FF6FF730992022703930BAE1EA39C
:1081C000D3E900230B970896FFF7A6F94346CDE9BC
:1081D00000503A46284603211BF0D0FD31461CF0E2
:1081E00011FD0028B8D194F86A3043F0010384F8F7
:1081F0006A301FF0AFFD60B1002088E6122086E6ED
:108200001FF052F8032082E605F18000C5F88800CF
:10821000ABE6012026F002FFEEE748461CF032FCF8
:10822000072074E650461CF039FC48461CF02AFC36
:10823000F6E700BFAFF300808D49FD1A070000008C
:10824000709C0020002AE784CD41040011750400D1
:1082500070B590F824308AB0C3F342030D4604464B
:1082600001210DF1230016468DF823301AF0B4FBDE
:108270007178024628461FF00DF91F491F4AA0FBDE
:108280000131981841F1070119A3D3E90023FFF741
:1082900043F923699842054621D21B1A0022019214
:1082A000174A0293174BA21AA3FB0232022192092A
:1082B00000230A4409AE099113490591CDE903331E
:1082C0000321D2B20696009318461BF0B7FD314643
:1082D0001CF098FC38B9256100200AB070BDFBD9AC
:1082E000C21A0023DBE70C200AB070BDAFF3008098
:1082F0008D49FD1A0700000000CA9A3B8C49FD1AFF
:108300007C9C002089888888CD4104000000000002
:1083100038B5194C9DF810E094F848C01CF00105E0
:1083200023D163F3420C400194F83230A1874FEA25
:10833000CE0E0EF0180E00F0200040EA0E0023F0E2
:10834000380303430D4884F832309121A2FB000327
:1083500084F848C001FB023105A3D3E90023FFF7ED
:10836000DBF8C4E91000284638BD0C25284638BD86
:108370008D49FD1A07000000D06D0020002AE78417
:1083800010B504469DF8080022844FEA411CC00045
:10839000A17D00F018000CF0200C4CEA000C0C48F9
:1083A00021F038014CEA010CA3FB0002912184F872
:1083B00016C001FB032104A3D3E90023FFF7ACF8A7
:1083C000606210BDAFF300808D49FD1A0700000008
:1083D000002AE784000000002DE9F047044600F180
:1083E000350190F8480094F832305B4DDFF8808119
:1083F000C0F3400060F386138CB084F832301BF079
:1084000071FE94F83220A38F5448E46102F079029F
:10841000002784F832209121A3FB0002C4E90577EC
:10842000277001FB03214AA3D3E90023FFF774F867
:10843000651B626C4A4B6760AD08A3FB053502F112
:108440000903984298BF3A46C5F3470522644FF0A6
:1084500031028CBF19460146A26005EB4502E76078
:10846000216148F8221006461BF0EAFD236A00F15C
:1084700009074FEA450A002B4AD00DF12C09AA44FE
:1084800008EB8A030993CDF820900694A38F334814
:108490004FF00008A3FB0002CDF80C80912101FBF6
:1084A0000321236904932F4B07932F4B05934FF020
:1084B000020A27A3D3E90023CDF82CA0FFF72CF85C
:1084C000104619464FF47A720023FFF725F8043559
:1084D000EDB2CDE9016003213B462A46CDF800808C
:1084E00040461BF04BFC49461CF08CFB60B994F8ED
:1084F000483043F0010384F848301FF0DFF908B337
:1085000000200CB0BDE8F0870C200CB0BDE8F0876F
:108510000DF12C09CDE90A3321694B460AAA032043
:1085200001F096F90028AAD10B99104808A3D3E9C5
:108530000023A1FB0001FEF7EFFF0A9B20F07F471D
:108540001F449CE7504626F069FDD9E7AFF3008051
:108550008D49FD1A07000000D06D0020002AE78435
:10856000BD86F21ACD410400457B040000CA9A3B47
:108570000C9D0020000000002DE9F04F05468BB057
:108580008B46012002219A4614462AF0D7FA00228F
:108590000221814601201AF0D1F83B494FF4D472F0
:1085A00028461AF05BF8461DF6B2384B0095324665
:1085B000012100201BF05AFC10F0FD0F0CD0344AB2
:1085C0003449354840F62F0333F097FB404080F3A1
:1085D00011884FF0030002DF304BA4FB0348204614
:1085E00027A3D3E900234146FEF796FF2C4B20F04A
:1085F0007F47A7FB03310722E01A02FB071168EB54
:1086000001014FF47A720023FEF786FFCDE9017075
:10861000CDF800B008950695296995F939402148AB
:108620000491214931EA240128BF014605911F4CDC
:1086300007944FF6FE710391534632460121002004
:108640001BF068FB10F0FD0F0CD0114A11491248C5
:1086500040F6440333F051FB404080F311884FF063
:10866000030002DFB9F1000F02D10BB0BDE8F08FBB
:108670000122022110460BB0BDE8F04F1AF05EB89F
:108680008D49FD1A07000000206E002015810400AE
:108690002C8E0600F08E06005C87060000CA9A3B0E
:1086A0008D49FD1A8DE1040035E30400BD8004000E
:1086B0002DE9F043C469228D4FF6FF739A428DB0C5
:1086C00000F088800546204622F016FE95F82830F6
:1086D000012B00F00F81022B00F00281002B00F033
:1086E000E18094F85071002F40F0FD80E68DB4F8E1
:1086F0003080002E71D1AA8C08F101060023CDE94B
:108700000A33B6B2002A70D094F93930002BC0F287
:1087100048810023A4F88A3195F82630D90740F122
:10872000EF800023A4F88E310DF127023146204658
:1087300022F026FB743000F04681B4F888312BB16A
:10874000B34240F20D819B1BA4F88831B4F8843108
:108750002BB1B34240F2FB809B1BA4F88431258EE1
:1087600017B9A84500F0EA800135ADB294F8D130D0
:1087700013F001065AD1DDE90A130A46002B40F036
:10878000ED80002900F0DC801E461846228DE46949
:108790000694CDE903570532A74D0290CDE90016A6
:1087A000D2B20121002005951BF048FB10F0FD0F0F
:1087B00010D01CF051FA84420CD0A04AA049A14824
:1087C00040F2155333F099FA404080F311884FF08E
:1087D000030002DF0DB0BDE8F083AA8C46440023FD
:1087E000CDE90A33B6B2002A8ED195F82630DA07E1
:1087F00097D4B4F88A31002B00F08280B34240F263
:10880000FA809B1BA4F88A31B4F88E31002B8BD0F0
:108810009E4280F0DE809B1B9BB20022062BA4F8B8
:108820008E31228600F2AC8001277DE794F9392051
:108830006FF30003002A84F8D13077DB94F87600D8
:10884000C0F3C00100F0070027F03AFDB4F86E2035
:10885000B4F86C30134403F2D51303447A4A7B48CE
:108860000721E3FB0021104671A3D3E90023FEF7A3
:1088700053FEDDE90A1320F07F4220692261904215
:1088800035BF161A801A002000260A46002B7FF4F6
:108890007DAF56EA010C7FF479AF002850D019461D
:1088A0001E4673E794F88E3003F01803182B7FF4FC
:1088B00018AFA18DB4F886218B1D9A42C4BF931FB7
:1088C0005B1AB4F88211CCBF9BB21346994200F0F8
:1088D0008C80A4F88231A4F88431A4F8882100E7C0
:1088E0003D2784F85071394620460DB0BDE8F0436D
:1088F00020F01EB80023A4F88831A4F88431F0E6F3
:10890000B4F88E31002B83D1628DB4F88C3140F2F3
:10891000E24101FB02F242F2107101FB0323013B31
:10892000B3FBF2F39BB2A4F88E316FE794F87700B3
:10893000012100F0070027F0C5FC87E73D4615E759
:10894000002D4BD000261146304633461EE700234B
:10895000A4F88431204622F0B3FA00E7304615E748
:108960001CF0E2F8014600283BD00023A4F888312F
:10897000238DC3801B23037100681CF09FF8E5E67C
:1089800094F939309342BFF6CFAEB8F1000F7FF4BF
:108990004BAFD4F878315A08DB0743D4C4F87821B8
:1089A000C2E628460AAA0BA904F1D409FFF7F0F998
:1089B000484621F073FF18B3484621F06FFF18B303
:1089C00000232386A5E69DF8271020461FF0B0FF60
:1089D00000E7082120461FF0ABFFFBE6002FB1D1D6
:1089E000F8E60123A4F88831B0E6B4F8881100292C
:1089F0007FF477AE6FE73E2120461FF099FFE9E64E
:108A0000FF201FF04DFFD7E70246D4E91E0119F001
:108A10005DFE0028D4D194F83C30580744BFA38DA4
:108A2000238676E642F00042C4F87821FCE600BFD7
:108A30008D49FD1A070000007D8004002C8E060081
:108A40003C8F06005C8706008C49FD1A00CA9A3BE1
:108A50002DE9F04F87B0CDE90432BDF8442003780A
:108A60000292BDF84820BDF84080BDF84C50468EBB
:108A7000B0F82E90B0F814B1019104460392002B87
:108A800000F0CB80013EB6B2A368D4F80C71721B23
:108A900092B2002B009209DAE168626823F0004389
:108AA00091422CBF7F18BF18A360FF1A009A638DF4
:108AB00013FB02F39BB2B3FBF8F218FB02F080B297
:108AC00083421FFA82FA80F09780C01A40F2E24295
:108AD0005D4902FB00F0A0FB010159A3D3E900238B
:108AE000FEF71AFD20F07F400744D94494F839304E
:108AF0004D44AD1B554440F2E246DB09E58506FBDB
:108B000008F500F08E80226C0099A36CDFF838B174
:108B100002FB1133A36427F0BFFD814694F8740172
:108B2000C0F3420027F0BAFD059B814406FB03F326
:108B300005FB09F9236509F57429444B09F23F291E
:108B4000A3FB09394FEA994303FB0AF02364A5EB21
:108B50000309A36C6A080344963A934228BF13465C
:108B6000C4E911230023C4F87C31A0FB0B0134A31A
:108B7000D3E90023FEF7D0FC049B3F1A3448A0FB46
:108B80000330800A06FB00F02DA3D3E90023A0FBED
:108B90000B01FEF7C1FC20F07F46029BA385039BDF
:108BA000A4F88C3129462046A4F82A8022F024F922
:108BB000284BA18D2B44881DB3FBF5F39AB290424C
:108BC000A4F8862102D2521A063A92B2019BA4F866
:108BD000822113B10023A4F88E313B464A46314628
:108BE0002046FFF7C9FC94F8803143F0010384F874
:108BF000803107B0BDE8F08F08FB1231124840F217
:108C0000E24389B203FB01F1A1FB00010CA3D3E90C
:108C10000023FEF781FC3F1A67E74E445E44B6B27C
:108C200032E7049B0848A3FB000105A3D3E9002316
:108C3000FEF772FC20F07F46A9460136ADE700BF83
:108C40008D49FD1A0700000000CA9A3B83DE1B43D2
:108C50005917B7D17FC3C9012DE9F04F04460B68FE
:108C6000077F1668D3F800A0638CD0F81E0095B07B
:108C700015464A7CADF84C30FF2AC7F3801389466D
:108C80000D9212908DF83F3072D198461A4612AB71
:108C900093E803000DF1400B1090ADF84410F80973
:108CA0000AF1710127680A915B460C900B971FF03F
:108CB00027FD0A99002843D196F89A310C9A0A9018
:108CC00068F3410362F3000386F89A311098BBF809
:108CD0000430C6F8A101A6F8A531DAF87130C6F85B
:108CE0009B318B88A6F89F31E38D94F83010A972E0
:108CF0002B81D4F82A306B60D4F83A30AB6105F19F
:108D0000180094F83E300371052119F065FE6B7F61
:108D100000F03F0060F305036B7794F83F30C3F336
:108D20000401A977A18EE981012803F01F0389B20C
:108D300006D91B3303F01F030B2B01D80A9A59BB2A
:108D40000022CAF8142095F820300B9862F3000333
:108D500085F82030E5680126214626711BF0A4FE27
:108D600028682E7129461BF0A9FE15B0BDE8F08FCA
:108D70000DF1400B10460DF13F015A4625F0C4FE9F
:108D80009DF83F80277F08F102085FFA88F88DF888
:108D90003F8008F0010282E7D9F800305A60E38E84
:108DA0002B82EB8940F2E24808FB03F71146638E01
:108DB0000A93304622F034F894F83F3096F8742144
:108DC0005B0963F3430286F8742127F065FC0C907D
:108DD00096F87401C0F3420027F060FC0C9B184425
:108DE00007FB00F0BA4B00F5742000F23F20A3FB14
:108DF00000307B08800C963B6862AB6294F831309F
:108E000008FB03F3AB63238FA6F88C313946304659
:108E100021F0F2FFAF4BB04AC6F890213B44B3FBC0
:108E2000F7F39AB2A6F88621298A881D824204DDCA
:108E3000C1F57F41FA310A4492B2A6F882216B68EB
:108E4000C6F87831234613F81C2FC2F34018DA070E
:108E500000F104814FF48073A3839AF8260026F072
:108E6000ADFB04F12B03002800F0EE80626AC4F829
:108E70002B20228D9A800D9BFF2B00F0E980BDF8FE
:108E80004C301298A4F82930C4F82500BBF80430FF
:108E9000A4F8233010989DF83F30C4F81F00A37742
:108EA000EB8963862B8AA386B6F88C31E38696F825
:108EB0007431C3F3420384F8383030461FF062F94E
:108EC000A881E08021460B98D9F804401BF0ECFD06
:108ED000AB89E3801C23D4F800B02371B8F1000FF4
:108EE00040F0D18084F81C80214658461BF0E6FDF6
:108EF00095F85B00B5F85080B5F85240012100F0BC
:108F0000070027F0DFF9444404F2D514DFF8D481D8
:108F10000444834671480721E4FB080131230024FF
:108F2000B360746068A3D3E90023F460FEF7F4FA39
:108F300020F07F4030616D6A0A9A7D1BD9F80C7071
:108F400040F2E24303FB027702212246012019F09E
:108F5000F5FB50461EF098FC07F2B2470246A7EB1D
:108F60000B07A7FB0801174657A3D3E90023FEF719
:108F7000D3FACDF804A0D9F808305949009120F06F
:108F80007F48BA1C3A3BD2B22046434401211AF032
:108F9000AFFF012800F082809AF82430DB076AD402
:108FA00030461FF0EFF84F4BA5FB035A044646A38B
:108FB000D3E9002328465146FEF7AEFAD9F8083027
:108FC000494A0792A3F13A09484B069620F07F4799
:108FD000A7FB0331E81A464B059340F2D1130893DF
:108FE00033694FF0000BCDE903B34FF0070303FBE8
:108FF00007116AEB01014FF47A720023FEF78CFA35
:109000000534E4B2CDE90170CDF800804B4622462C
:10901000012158461AF07EFE10F0FD0F0CD0354AA3
:10902000354936484FF4E97332F067FE404080F32B
:1090300011884FF0030002DF01220221104619F0CF
:109040007DFB15B0BDE8F08FC4F82B00988012E7C7
:109050000022C4F82520A4F8292017E7254A28492A
:109060002648F82332F049FE404080F311884FF043
:10907000030002DFEEE600230122009318461146AA
:109080001AF0F4FE8CE76B7F43F040036B77281DEA
:1090900025F032FB4FF00108E88323E71BF0DCFDED
:1090A00082453FF479AF134A1649144840F27923B8
:1090B00032F023FE404080F311884FF0030002DFBE
:1090C0006AE700BFAFF300808D49FD1A070000007A
:1090D00083DE1B437FC3C901404B4C008C49FD1A02
:1090E00051E1040000CA9A3B21E104008D49FD1AB8
:1090F0008DE10400F0930600F08E06005C87060008
:109100002C8B06004C9406002DE9F04F8DB01F46C5
:10911000BDF860300793CDE90501BDF868309DF8D2
:109120005C90BDF864B00493002016461EF020FE4B
:10913000002800F0658109F00108044640461AF055
:10914000C1FF0390B8F1000F6DD1169B03993A4609
:1091500040461FF0D5FA002840F06381236A04F1ED
:109160001C020892002B65D0D4F820A0DAF8005039
:1091700007F0010B9AF85A00C0F3C00100F0070095
:1091800027F09EF8BAF85210BAF8502000F2D51322
:109190000A441344CC48CD4A0721E3FB0021104682
:1091A000C7A3D3E90023FEF7B7F920F07F40286179
:1091B000304625F073FF94F833306FF3410384F8A1
:1091C0003330FF2384F83430002E00F01D81A9F1E4
:1091D0000203012B40F2298194F84810089869F3A2
:1091E000420184F8481094F833106BF30001DDE974
:1091F000052384F8331016990968616216998988E5
:1092000021850499218600960021FFF7B9F8606452
:1092100027F0F0F9002840F013812046FFF7DCF832
:109220000DB0BDE8F08F062119F02CFA00288CD182
:109230001220F5E71BF020FC0990002800F0738154
:109240001EF094FF0546002800F06A81203019F0D6
:10925000D7FB05F11C0A002840F01D81032105F110
:10926000240026F0E1FE079BD5F888006B854FF6B9
:10927000FF73A5F82CB02B85002800F0198105F1AB
:109280007C0205F1780119F009FAB5F8763023F47B
:10929000EF6323F0070343F4887343F00103A5F859
:1092A000763095F88E304FF0000B23F0070385F8E9
:1092B0008E300121C5F888B0A5F88CB028461FF083
:1092C00079FEC5F82EB0A5F832B005F1340025F0CE
:1092D000BDF995F8393060F30503012185F839307F
:1092E0000DF12F0026F0A0FE049B9DF82F20A5F87D
:1092F0008C31774B85F83BB0A3FB0213DB0803EB03
:109300004303A2EB830295F83930A98DA5F88EB1FD
:1093100003F03F0385F8393095F83C30A5F884B167
:10932000053223F0030385F83A20079A85F83C308C
:1093300040F2E24B674B0BFB02FB4FF4C0225B4455
:10934000C5F88821881DB3FBFBF39AB28242A5F8C9
:10935000862102DD063A521A92B2A5F882212846E9
:1093600021F0D2FC5946284621F046FD099BC5F85C
:109370005431002385F850311FF0B6F995F8942147
:1093800060F3020285F894211FF0B4F995F8942156
:1093900060F3C50285F8942195F88021002363F3DA
:1093A000410285F8802105F1D40021F035FA95F8C5
:1093B0009A21169907F0010B6BF3410285F89A2167
:1093C0003122AA600023169A6B60EB601268C5F820
:1093D000A12195F89A218988A5F8A51169F30002C1
:1093E000039985F89A210A68C5F89B218A88A5F80F
:1093F0009F21C4F820A0C5E905332B70ED61B9E6C3
:109400000C200DB0BDE8F08F26F088FA00283FF45C
:10941000DEAE16993846324625F0BAFF84F834009D
:10942000D5E60B200DB0BDE8F08F002025F05AFEE8
:1094300094F8333043F00203C14684F83330CBE66E
:10944000256AEB6E63B1244A2449254840F21D4346
:1094500032F053FC404080F311884FF0030002DFEC
:1094600005F1600105F15C0019F01CF906460028C1
:109470003AD02F68EE66D7F85451002D42D02846D6
:109480001BF000FB38461EF077FE0023032023620A
:109490000DB0BDE8F08F104A12491148C12332F0D7
:1094A0002CFC404080F311884FF0030002DFD5E62A
:1094B00005F18000C5F88800E1E600BFAFF3008049
:1094C0008D49FD1A0700000000CA9A3B8C49FD1A1D
:1094D000ABAAAAAA7FC3C9017C940600208D06000E
:1094E0005C870600B8870600104A1149114840F20F
:1094F0001F4332F002FC404080F311884FF003001C
:1095000002DFB6E7094A0A490A4840F2264332F028
:10951000F4FB404080F311884FF0030002DFAEE718
:1095200009981BF0AFFA07207AE600BF7C9406008A
:109530007C8E06005C8706002DE9F04F04468DB056
:1095400090F81C80238D406AADF82C30E307C8F3F7
:10955000C0170E461546C8F340180A9000F10D8159
:109560000023A383B37C707C13F001031CBFD4F8E9
:109570001E30C4F82B3004F12B0214BF638CC4F8E6
:109580002B30FF28938004F1250904F11F0240F0DD
:10959000E5800023BDF82C100A98C4F82530A9F8FE
:1095A0000430A777C4F81F0091803368D3F8009087
:1095B000EB8963862B8AA386B9F83030E38627F0DF
:1095C00069F884F838002F6838461EF0DBFD00216A
:1095D000A881E080384621F023FCD6F804A020685A
:1095E00021461BF061FAAB89AAF806301C23DAF891
:1095F00000408AF80430B8F1000F40F0CC808AF8BF
:109600001C80514620461BF059FABB687A6895F8D1
:109610005A00B5F80E80F568674C934238BF134680
:10962000C0F3C00103F1090A00F0070040F2E24371
:1096300003FB08F826F044FE002202212D1A012027
:1096400019F07CF848461EF069FBA5FB044558A3B9
:10965000D3E90023834629462046FDF75DFFCDF878
:109660000490B3685549009120F07F490BF1040242
:10967000A3EB0A03D2B24B44012100201AF038FCBC
:1096800010F0FD0F0CD04E4A4E494F4840F23D338A
:1096900032F033FB404080F311884FF0030002DFCB
:1096A0004FF0000B5B4603220121CDF800B0584675
:1096B0001AF0DCFB38461EF065FDB36806463E48EE
:1096C000A3EB0A0AA8FB000139A3D3E90023FDF7A5
:1096D00023FF19463D4B08933D4B069340F26D33F3
:1096E000079709933B698046CDE904B310460023F0
:1096F0004FF47A72FDF710FF364B0722A9FB0331B6
:10970000CDE9028002FB0911E01A65EB01014FF47B
:109710007A720023FDF700FF0536F6B2CDE900901E
:1097200053463246012158461AF010FB10F0FD0F47
:109730000CD0234A2349244840F26E3332F0DDFA3C
:10974000404080F311884FF0030002DF0122022124
:1097500010460DB0BDE8F04F18F0F0BF04F11E0147
:1097600025F0D2F9A37FBDF82C200A98C4F8250073
:109770000233A377A9F8042017E7114A16491248C3
:1097800040F2BD2332F0B9FA404080F311884FF027
:10979000030002DFE4E66B7F43F040036B77281D94
:1097A00024F0AAFF4FF00108E88328E7AFF3008018
:1097B0008D49FD1A0700000000CA9A3B01E304002E
:1097C0007C940600F08E06005C87060005E304002A
:1097D00035E304008D49FD1A2C8B060000000000C3
:1097E0000538C3B2052B0CD870B580B20D461EF0FB
:1097F000D1FC044618B190F93930002B03DA00206F
:1098000070BD0020704790F876000F4EC0F3C00185
:1098100000F0070026F054FD0C4A00F2B550072175
:10982000E0FB0621104606A3D3E90023FDF774FEF2
:1098300020F07F402860204670BD00BFAFF300805D
:109840008D49FD1A0700000000CA9A3B8C49FD1A99
:109850002DE9F04F93B0FF240B930B1D0A930023C7
:10986000CDE90E33054616468DF837409B464FF03E
:10987000040A1F469946984610AB0693564B05932B
:10988000564B03930FAB01930EAB002000930223C2
:1098900010930490029033460DF1370229461AF0D6
:1098A0006BFB022815D0109BCBB9FF2C26D0336858
:1098B000BB4223D0BAF1000F40D00AF1FF3AFF2497
:1098C0005FFA8AFA8DF83740D6E7294600201AF069
:1098D0009FFB109B022BF8D0109B002BE5D0404A39
:1098E000404941484FF4F77332F007FA404080F3A3
:1098F00011884FF0030002DFFF2CD8D19DF837000C
:10990000FF2829D011A9FFF76BFF0028B4D0FF2C46
:109910000E9F119B0AD04146384609931AF092FBDC
:109920000A9B03EB09029042099B17D8B8469DF8A1
:1099300037403768DDF83CB099469DE72B49284A07
:1099400029484FF4FB7332F0D8F9404080F3118876
:109950004FF0030002DFB0E7FF2C34D0244807218A
:10996000A9FB000301FB093119A3D3E90023FDF78B
:10997000D3FD044600B140341E4AABF57423A3F571
:109980001073934216D81A480721A8FB000301FB65
:1099900008310FA3D3E90023FDF7BEFD164BA3FB4F
:1099A0000B2304EB93440B9B044400201C6013B076
:1099B000BDE8F08F0BF1E87B0BF5D43B08F1FF38E5
:1099C0000BF5A57BDFE76FF0090013B0BDE8F08F62
:1099D00000CA9A3B0000000011E6040015E60400EE
:1099E000C89406000C9506005C87060014950600D6
:1099F0008D49FD1ABFBDF07F83DE1B4300000000D0
:109A00002DE9F043C668476873683D491A68D0F885
:109A10000090A7F57423A3F510738B4283B08046A2
:109A200007D907F1E87707F5D43709F1FF3907F5CA
:109A3000A57773681169DD89CDF8049006F11003EC
:109A400001AA0220FFF704FF00284ED10199A1EBE3
:109A500009031B0237D4084649461AF0F3FA0346B5
:109A600028480721A3FB000201FB032122A3D3E91D
:109A70000023FDF751FD34690444002C346109DBF7
:109A800040F2E24305FB03F3A3422FD2E41AA342C0
:109A9000FCD33461D8F800301A48A3EB0903A3FBC8
:109AA0000002072101FB032113A3D3E90023FDF7E3
:109AB00033FD154BA3FB0737A0EB974020443061E3
:109AC00003B0BDE8F08348461AF0BCFA03460D48DF
:109AD0000721A3FB000201FB032107A3D3E9002315
:109AE000FDF71AFD3469241AC7E73469002CD1D177
:109AF00003B0BDE8F08300BF00CA9A3B000000003D
:109B0000BFBDF07F8D49FD1A83DE1B4300000000BE
:109B100010B5334C3349002304F1FF3C14F83320D3
:109B2000072A02EB820E05D811F83E206FF345128A
:109B300001F83E201CF833206FF300020CF83320AC
:109B40000133082BEAD1284A284C002313700A78E5
:109B500063F300020A7091F8282063F3000281F891
:109B6000282091F8502063F3000281F8502091F8EA
:109B7000782063F3000281F8782091F8A02063F345
:109B8000000281F8A02091F8C82063F3000281F858
:109B9000C82091F8F02063F3000281F8F02091F8DA
:109BA000182163F3000281F81821114A9FED0A7B06
:109BB0001370104B83ED007B0F4B236028B1BDE881
:109BC00010400E490E4837F08DBFBDE810400C48DC
:109BD00037F096BFAFF30080FFFFFFFFFFFFFFFFEF
:109BE0004DAA00200CA90020EDBD00201CA80020DB
:109BF000ECBD002040780020A0BB0D00D1F2040095
:109C000010780020000000002DE9F04F8FB00DF11A
:109C100037010446DFF8E0A0DFF8E0800DF1360000
:109C20001AF0CAFF9DF836309DF837B00B931AF042
:109C300007FADAF80060A6FB085629A3D3E9002347
:109C40000027814631462846FDF766FCCDE90777B7
:109C5000069420F07F44DAF80400234B0593A0FB20
:109C600008011FA3D3E90023FDF756FC1F4B20F08A
:109C70007F40A4FB0331072202FB0411CDE90370EE
:109C8000E81A66EB01014FF47A720023FDF744FCF9
:109C90000097CDE901404B460B985A4603211AF034
:109CA00039F810F0FD0404D06FF08B000FB0BDE860
:109CB000F08F0F480F4A00232FF010FB20B9DAF87D
:109CC0000C000FB0BDE8F08F9DF837209DF83600EE
:109CD0000094234603211AF0C9F86FF07300E5E7FA
:109CE0008D49FD1A0700000021FA04008D49FD1A74
:109CF000C0AA0020447B0B00D8AA002000CA9A3BCF
:109D000038B50F4D04461AF09BF9A9681AF09AF974
:109D1000696803460B48B3FBF4F4A1FB00011C4443
:109D200005A3D3E90023FDF7F7FB20F07F40844231
:109D300094BF0020012038BD8D49FD1A07000000A6
:109D4000D8AA002000CA9A3BF0B5C468636883B003
:109D50000546002B63D128F037FA002028F05AFA84
:109D60000021084628F048FA00222521082028F082
:109D700087FA454B019301A828F06AFA434940F25B
:109D80005B6028F015FB237AC3F3420262F30613EB
:109D90002046237226F0A0FE25F0C0FD58BB637A52
:109DA0009B071FD127682E68384626F027FA0644FD
:109DB0006A6806F10901012028F054FC28F040FDF2
:109DC00020461DF06DFD811C3246C9B2384626F092
:109DD00023FA054670BB204626F0AAF988B9002070
:109DE00003B0F0BD012025F00DF94178821C007808
:109DF00028F0D8FBD6E7607A10F0030018BF0120E6
:109E0000F1E7234A2349244840F22C4331F075FFFF
:109E1000404080F311884FF0030002DFDFE793F842
:109E200020309A0797D01D48214628F08BF928F05A
:109E300079FAD4E7164A1A49174840F2144331F028
:109E40005CFF184B0721A5FB030301FB05310CA3A5
:109E5000D3E90023FDF760FB13490246134831F0B4
:109E60004CFF404080F311884FF0030002DF1048A0
:109E7000214628F067F928F055FA6FF08B00AFE71C
:109E800000CA9A3B00000000D6BE898E5555550089
:109E9000E4980600C88806005C870600A103050058
:109EA000DC8706008D49FD1A949906006899060022
:109EB000A9060500000000002DE9F041C46894F9EE
:109EC0001630002B8CB0C0F2FF80636805460E464A
:109ED000002B40F0EE80A37D6FF30003A37528F004
:109EE00073F9002028F096F90021084628F084F93B
:109EF00000222521082028F0C3F901201AF05EFF76
:109F00000746002800F0C78007F11C0028F0E2F99E
:109F1000874B0B930BA828F09BF9864940F25B60B6
:109F200028F046FAA07DC0F34100253026F086F9DE
:109F30008148214628F006F9A37D9B0603D4636877
:109F4000002B00F0A580962028F080FB00231A4605
:109F50001946184628F092FA25F0E0FC002838D17E
:109F6000A37D13F0180F59D1D4F800802F68404614
:109F700026F044F907446A6807F10901002028F037
:109F800071FB28F05DFC28F0E9FA20461DF0D4FEB4
:109F9000011DC9B240463A4626F03EF980460028E7
:109FA00040F0998016B9636A002B4ED1636843B1C3
:109FB000624B0122022100209D6018F0F5FB002871
:109FC00035D1204626F0B4F8D0B900200CB0BDE859
:109FD000F081A07DC0F3C00025F014F807460DF114
:109FE0002B0025F013FB79788046BA1C387828F0CE
:109FF000D9FA9DF82B000022414628F0F1FCB3E786
:10A000004F4A5049504840F20B2331F076FE404011
:10A0100080F311884FF0030002DFD6E7012024F01F
:10A02000F1FF4178821C007828F0BCFA9CE7444A92
:10A030004649454840F2062331F05FFE404080F338
:10A0400011884FF0030002DFBBE7414A0792414A03
:10A05000059240F2F31200930892CDE90366CDE930
:10A06000016606943B463146032219F053FE10F078
:10A07000FD0F9BD0324A384933484FF4FA7331F020
:10A080003CFE404080F311884FF0030002DF8DE773
:10A0900028F054FA60E72A4A30492B484FF4C57338
:10A0A00031F02BFE404080F311884FF0030002DFB7
:10A0B0002AE7636893F82030D90705D4636893F8DA
:10A0C00020309A077FF507AF2548214628F03AF857
:10A0D00028F028F979E71A4A22491B4840F2E5138B
:10A0E00031F00BFE204B0721A8FB030301FB0831D5
:10A0F0000DA3D3E90023FDF70FFA1C4902461C48C3
:10A1000031F0FBFD404080F311884FF0030002DF87
:10A110001848214628F016F828F004F96FF08B0053
:10A1200054E700BFAFF3008000CA9A3B0000000074
:10A13000D6BE898E5555550019A20200D8180020A8
:10A14000A0990600C88806005C870600D088060033
:10A1500021120500C11205006C8C06003099060022
:10A16000A1030500DC8706008D49FD1AEC99060065
:10A1700068990600FD10050038B5044626F06EFF0C
:10A18000A37DA27DC3F34103013303F00303032B3B
:10A1900008BF002363F3420214BF03F1250025200A
:10A1A000A27526F04BF863680BB123694BB919F01F
:10A1B00047FFC11C002028F0C9FABDE8384028F04C
:10A1C0003FBB28F0F1FA054619F03AFFC11C002008
:10A1D00028F0BCFA28F034FB28F0E6FA294619F0FA
:10A1E00031FF0B4A03460721A0FB020201FB0321BA
:10A1F00005A3D3E90023FDF78FF923691B1A236117
:10A2000038BD00BFAFF3008000CA9A3B00000000D9
:10A210008D49FD1A000000002DE9F0478AB0044680
:10A2200028F0B2F8C0B250B926F060F8C448214610
:10A2300027F088FF0AB0BDE8F04728F073B828F08F
:10A24000C3F8054628F0E2F9074628F0E9F9814607
:10A2500028F020FC064628F0FFFB824628F098F9FB
:10A26000EDB2804628F078F926F040F8002DDDD0D8
:10A2700001201AF0A3FD0546002800F04D8117F0DB
:10A28000FF07F6B240F0E380002E40F0DA804FF096
:10A29000FF093A464B463146204627F005F900288B
:10A2A000C4D02A7F616800238DF823305FFA88F7D5
:10A2B00002F00F03002900F0EC80616891F8201093
:10A2C000880700F1E680072BB0D0A17D090740F197
:10A2D0004381002B40F0C4806B7F063B1F2BA5D829
:10A2E00004201AF06BFD0028A0D028F0B1FA636AB0
:10A2F000074643B9238C40F2712202FB03F3B0FB03
:10A30000F3F203FB120723681A698E4B0721A2FBA5
:10A31000030301FB023188A3D3E90023FDF7FCF816
:10A320006FF44A7C00EB0C03BB42FFF47FAF28F0D4
:10A3300005F94846636825F04FF9E37D99078046A3
:10A3400040F1E581002800F0E2818246012728F0F3
:10A3500049F8CDE9027A09AB049305F11E03019394
:10A360002B7FC3F38013014607460093002201238D
:10A37000204627F0B3F8384627F0B2FF27F0FAFF5F
:10A38000002840F0CA817048214627F0DBFE626851
:10A3900092F8203043F0010382F82030A37D43F08F
:10A3A0008003A3751AF02CFD172202714FF6FF727D
:10A3B000C28095F81CC082463B46CCF3401C00F19D
:10A3C0001C0207F1200E1D6858689968DF68D76085
:10A3D0001033734515605060916002F11002F2D1A4
:10A3E0001B6813609AF81C30CAF808406CF34513D8
:10A3F0008AF81C3028F0D8F9002ECAF81000099B02
:10A40000CAF8143008BF4FF0FF098AF81990E37DAD
:10A4100013F0020303D0B8F1000318BF01239AF828
:10A420001A2063F300028AF81A201AF0E9FCCAF82D
:10A430000C00DAF8000051460AB0BDE8F0471AF007
:10A440000DBD5FFA8AF025F055F9814621E7A07D20
:10A450005FFA89F1C0F3C00025F0E2F8814618E701
:10A46000012B40F089806A7F0C2A7FF4DFAE2A7FBF
:10A47000CDF80090194600230193D20905F1240379
:10A48000204626F065FF00287FF42AAF2B7F03F0DB
:10A490000F03002B70D16B7F052B7FF6C7AE252BEA
:10A4A0003FF6C4AEA27D02F02102202A09D16268E3
:10A4B000002A00F0C180052B7FF6B8AE252B3FF6B1
:10A4C000B5AE63682BB12B7F03F00F03072B7FF42E
:10A4D000ADAE03209DF823801AF070FC05460028DD
:10A4E0003FF4A4AE1AF08CFC4FF6FF73EB8005230B
:10A4F0002B71002F3CD17F20AB7E2876002E08BF29
:10A500004FF0FF0968F34103286885F81990AB768E
:10A5100029461AF0A3FC89E60C4A0D490D4840F281
:10A52000C72331F0EAFB404080F311884FF003006D
:10A5300002DFA4E6AFF3008000CA9A3B00000000EF
:10A54000151105008D49FD1A05130500A099060097
:10A55000309906005C870600B9F1FF0F8DF8249052
:10A56000C2F380184BD0227E91453FF4B2AE90E703
:10A5700027F0FEFFC0B2BFE7062B8CD04521D940A3
:10A5800011F0010139D1012B10D16B7F0C2B7FF41D
:10A590004DAE2A7FCDF800900DF123030193D2092F
:10A5A00005F12403204626F0D3FE08BB2B7F03F0E1
:10A5B0000F03042B7FF43AAE6B7F063B1F2B3FF655
:10A5C00035AEA37DDB077FF531AE27F00BFF2B7F88
:10A5D0000278C3F38013B3EBD21F7FF427AE0830A9
:10A5E000062205F11E0137F093FF00287FF41EAE0E
:10A5F0006B7F002B7FF465AF18E66B7F5BE705F19F
:10A600001E0A09AA5146404625F02AF900283FF4BF
:10A610003DAFE37D03F0010343457FF437AF51467F
:10A62000062204F1080037F073FF00287FF42EAFF4
:10A630002B7F03F00F034CE69620079228F006F8D4
:10A64000079A104627F0D2FE03201AF0B7FB804687
:10A6500000283FF4EBAD1AF0D3FB4FF6FF73A8F8D8
:10A660000630052388F80430002F64D17F23002EA4
:10A6700088F8183014BF4B46FF2388F8193098F833
:10A680001A30D8F800006FF3410388F81A304146B9
:10A690001AF0E4FB27F0A6FE06460322337862F3A5
:10A6A000030333702B7F3278C3F3801363F3C71235
:10A6B0000C2332704846737024F08EFFE27D9207BF
:10A6C0003DD500283BD03178324641F0400102F8B8
:10A6D000021B0168C6F8021083889380D5F81E30EB
:10A6E000B3606B8CB381304627F0FAFD27F042FE51
:10A6F000002835D128F0A4F8A37D204843F00103B9
:10A700002146A3750AB0BDE8F04727F01BBDA77D21
:10A7100004F1190AC7F3801719E6194A19491A48AA
:10A7200040F2A44331F0E9FA404080F311884FF041
:10A73000030002DF27E627F01BFFC3B297E7A37DE4
:10A740003278C3F3801363F38612334603F8022B87
:10A75000D4F81920C6F80220B4F81D209A80BDE76D
:10A76000074A084908484FF4A56331F0C6FA40404B
:10A7700080F311884FF0030002DFBBE729110500C9
:10A78000A0990600389906005C87060000000000CA
:10A790002DE9F041C468A2894FF6FF739A4282B056
:10A7A00000F0C780054626F09DFF2B89628AE08A6B
:10A7B0001A4492B21044637FA28280B2411CE182AB
:10A7C0005E064FF00001618204F1180100F18C80F7
:10A7D00003F03F000B46A17F009004F11F0023F01F
:10A7E00043FF0646D4E90B231344D4E90D020021AC
:10A7F0000244E1626163A16AA26394F872208B4211
:10A8000028BF0B4612F00402236377D027F0DCFC4C
:10A81000002027F0FFFC201D27F01AFD2389A17AD4
:10A8200040F25B6043EA014127F0C2FD304625F06B
:10A8300005FD2146584827F085FC962027F006FFA5
:10A8400094F85A2094F85B00C2F3C003002102F090
:10A85000070200F0070027F011FE204626F0A4FFB3
:10A8600027682E68384625F0C9FC06446A6806F158
:10A870000901002027F0F6FE804627F0B5FF0020F2
:10A8800027F0CCFF236B94F85B0003F13002A36B3D
:10A8900000F00700012103EB420527F02FFD45449E
:10A8A000054494F85B0000F00700022824D0042837
:10A8B0000CBF4FF4BC73282301211D4427F020FD59
:10A8C000284427F083FFA18905313246C9B23846B2
:10A8D00025F0A2FC054698BB204625F029FCD0B9FE
:10A8E000002002B0BDE8F0810A4603F03F03E18B8F
:10A8F00023F006FF064675E71823DDE7D4E91701C4
:10A9000017F0E4FE002881D194F8723043F004037C
:10A9100084F872307AE7214A2149224840F25513DF
:10A9200031F0EBF9404080F311884FF0030002DF73
:10A93000D6E71D48214627F005FC27F0F3FCCFE7BA
:10A94000164A1A49174840F24B1331F0D6F9184B02
:10A950000721A5FB030301FB05310DA3D3E9002368
:10A96000FCF7DAFD13490246134831F0C6F94040BE
:10A9700080F311884FF0030002DF1048214627F0D2
:10A98000E1FB27F0CFFC6FF08B00AAE7AFF300806C
:10A9900000CA9A3B00000000011A05006C9A0600EC
:10A9A000C88806005C870600A1030500DC87060056
:10A9B0008D49FD1AC09A0600689906007D030500BE
:10A9C000F0B5C468A2894FF6FF739A4285B000F0D3
:10A9D0008B80054626F086FE2B89628AE08A1A441F
:10A9E00092B21044637FA28280B2411CE1825E0673
:10A9F0004FF00001618204F118015FD403F03F00C1
:10AA00000B46A17F009004F11F0023F02DFE0646A7
:10AA1000204603A926F096FF039B94F872101A783B
:10AA200061F3C3021A70039A94F872301178C3F379
:10AA3000400363F38201117027F0C6FB002027F06A
:10AA4000E9FB201D27F004FC2389A17A40F25B601A
:10AA500043EA014127F0ACFC304625F0EFFB0399B7
:10AA6000204626F043FF2146374827F06BFB96200F
:10AA700027F0ECFD94F85B0000F0070027F0B6FC2F
:10AA800027682E68384625F0B9FB06446A6806F147
:10AA90000901012027F0E6FD27F0D2FEA18905314A
:10AAA0003246C9B2384625F0B7FB054618BB2046EA
:10AAB00025F03EFB50B9002005B0F0BD0A4603F07A
:10AAC0003F03E18B23F01CFE0646A1E71F4A204905
:10AAD000204840F2031331F010F9404080F3118810
:10AAE0004FF0030002DFE6E71B48214627F02AFB70
:10AAF00027F018FCDFE7154A18491648F92331F00A
:10AB0000FCF8174B0721A5FB030301FB05310CA340
:10AB1000D3E90023FCF700FD12490246124831F048
:10AB2000ECF8404080F311884FF0030002DF0F483B
:10AB3000214627F007FB27F0F5FB6FF08B00BBE702
:10AB400000CA9A3B0000000035180500CC9A0600A8
:10AB5000C88806005C870600A1030500DC870600A4
:10AB60008D49FD1A1C9B0600689906007D030500AF
:10AB70002DE9F0472DED028B9FED498B4A4E84B0B5
:10AB800004464FF02003EFF3118783F31288BFF3DD
:10AB90006F8FD4F8C8508DB9022104F1E00036F06F
:10ABA000EAFE002843D100238DED008B029304F1CF
:10ABB000D00239463D482FF06FF8E2E7D4F8CC20B8
:10ABC0002B68C4F8C830954208BFC4F8CC30D4F81C
:10ABD000E03043F00203C4F8E030EB6823F00403F4
:10ABE00043F00103EB606B6887F31188BFF36F8F4D
:10ABF000284698474FF02003EFF3118983F312881A
:10AC0000BFF36F8FEB68990723F0010219D4EA6054
:10AC1000D4F8E03023F00203C4F8E03089F311885F
:10AC2000BFF36F8FDB05ACD42EF016FFA9E704F15C
:10AC3000D80500220121284637F0A3F80028F8D1D2
:10AC4000B1E7306823F00303EB600028E0D0002771
:10AC5000D0F80080BA460028DAD042689542014612
:10AC60000BD1016897B972683160824200D171607E
:10AC700040F808AB2EF00CFB3946B8F1000F0BD0B2
:10AC8000D8F8002040460F469046E4E739607268E5
:10AC9000824208BF7760EBE74246F3E7AFF30080FC
:10ACA000FFFFFFFFFFFFFFFF00BB002004BE0020EF
:10ACB000F8B510EE904A34F000472DED048B10EEFD
:10ACC000103AB0EE609A0DD183F480035B0013F567
:10ACD000000F40F2098230EE098AB0EE480ABDEC5E
:10ACE000048BF8BD23F00040B0F1FF4F02D8B7F15C
:10ACF000FF4F08D9B3F17E5FEDD184F48004640086
:10AD000014F5000FE5E7002B01462DDAB7F1974F58
:10AD10000CD3B7F1FF4F2AD00225B4F17C5F41D1AB
:10AD2000002BC0F28F80B1EEC08AD6E7B7F17E5F0C
:10AD300031D3FA15C2F1960247FA02F505FA02F28A
:10AD4000BA423DD1B7F17E5F4AD1002C80F2D28168
:10AD5000B5EE400AF1EE10FA50D1D80FBDEC048BDD
:10AD6000BDE8F8402FF020BEB7F1FF4F3DD1B0F164
:10AD70007E5F00F0B98108D9DFED977A002CB4BF6F
:10AD8000B0EE678AB0EE498AA7E7002C80F2AF8167
:10AD9000B1EE498AA1E7B4F1804F34D0B4F17C5FC1
:10ADA0005CD0002523F04042B2F17E5FB0EEC08A55
:10ADB0003FD1002CBCBFB7EE007A87EE088A29E0AD
:10ADC000B7F17E5FC1D00025B4F1804FEAD1B0F178
:10ADD000BF4F1AD2B0F1D05F29D920EE008A7CE7AC
:10ADE00005F00105C5F10205EEE7B7F17E5FACD0D5
:10ADF000B4F1804F4FF00005E9D08EE7B7EE007A4E
:10AE000087EE008A69E70025E1E7B0F1FF4FB0EE79
:10AE1000C08A35D1002BBFF660AFA0F17E50284329
:10AE200016D1BDEC048BBDE8F8402FF0CBBDB0EEE1
:10AE3000C08A28BB002C1EDA002B8FDA6B1E58420A
:10AE400058418BE7B0F1FF4FB0EEC08A40F055811A
:10AE5000012D7FF442AFB1EE488A3EE7B0F1FF4FDB
:10AE6000B0EEC08A3FF439AFB0F17E5FD9D0002890
:10AE70003FF433AFD5E7012D08BFB0EE408A2CE791
:10AE8000DE0F013E55EA0602CBD0B7F19A4F40F2F1
:10AE90004081524B984208D8002C0BDA0020BDECC0
:10AEA000048BBDE8F8402FF071BD4D4B984208D996
:10AEB000002CF3DC0020BDEC048BBDE8F8402FF043
:10AEC00057BDB7EE007A38EE478ADFED467ADFED00
:10AED000469A3FA1D1E9000168EE278AFCF7CCFA37
:10AEE00007EE900AB5EE007A48EE477AB6EE007AA1
:10AEF00007EEC87A68EE087ADFED3C6A27EE277A1B
:10AF0000F0EE687A47EE667A68EE299A39EEA77A0B
:10AF100017EE103A23F47F6323F00F0307EE103A85
:10AF200077EE699A77EEE97A013D24F47F64354340
:10AF3000B7EE007A24F00F04BFEE008A18BFB0EE1F
:10AF4000478A07EE104A67EE890A39EE477A07EE1C
:10AF5000903A47EE270A07EE104A67EE877A30EEFE
:10AF6000A77A17EE101A002921F000431ADDB3F179
:10AF7000864F09D9B5EEC08AF1EE10FA4CBF012018
:10AF800000208CE70120E5E036D1DFED196A37EECD
:10AF9000677A70EEA66AF4EEC76AF1EE10FAE9DCA1
:10AFA00086232DE0134A934207D9B5EEC08AF1EE0D
:10AFB00010FA4CBF012000207DE71DD137EE677AE3
:10AFC000B4EEE07AF1EE10FAEADBEEE7AFF30080E0
:10AFD000E13D55555555D53F00000000F3FF7F3F3B
:10AFE0000700803F70A5EC3600AAB83F3BAAB83FE7
:10AFF0003CAA383300001643B3F17C5F6FD9DB15F0
:10B000007E3B4FF4000018410844C0F3C753A04AE8
:10B010007F3B1A41024007EE102AC0F3160040F4AD
:10B020000000C3F117031841002977EEC77AB8BFB3
:10B03000404237EEA07ADFED976ADFED975A9FED39
:10B04000976A17EE103A23F47F6323F00F0307EE9D
:10B05000103A77EE677A67EE266A70EEE70ADFED60
:10B06000907A67EE277A9FED8F7A40EE877AB7EE77
:10B07000000A36EEA77A77EE666A77EEE67A67EE32
:10B08000076A47EE277A16EEA56ADFED875A46EE85
:10B09000265A9FED866A15EEA66ADFED855A46EEC2
:10B0A000265AB0EE476A05EEE66AF0EE006A67EEF1
:10B0B000065A36EE666AC5EE866A76EEE77A77EE6F
:10B0C000C77A30EE670A10EE103A03EBC053B3F5BF
:10B0D000000F06DA2FF006FC20EE088AFDE50020BE
:10B0E000A7E700EE103AF7E7B7EE008AF5E59FED27
:10B0F000718AF2E5B0EE408AEFE5B0F17E5F3FF491
:10B100008CAE00283FF4B7AE002D3FF48AAE022586
:10B11000002613F0FF4F08BF9FED677A674802BF14
:10B1200068EE077A6FF0170317EE901A4FEAE152B4
:10B1300018BF00237F3A1A44C1F31603834243F039
:10B140007E5106DD5E4883427FF71CAF0132A1F5D8
:10B15000000100205B4B03EB8003D3ED005A5A4BF8
:10B1600006EE101A75EE867AF7EE006AC6EEA74A6A
:10B17000491041F0005101F5802101EB405136EEBC
:10B18000657A07EE901A27EE245A15EE107A1F40C2
:10B1900006EE907A06EEE77A77EEE57ADFED4B5A27
:10B1A00036EE676A65EE057A06EE667A9FED486AC6
:10B1B00047EE865A9FED476A05EEA76ADFED465ACD
:10B1C00046EE275A9FED456A05EEA76ADFED445A21
:10B1D00046EE275A27EE247A36EE856A67EEA77A7E
:10B1E00026EE076A05EEA76A66EEA64AF0EE085A52
:10B1F00074EEA57A77EE867A17EE901A194007EE6C
:10B20000901A77EEE55A27EE277A75EEE45A66EE45
:10B21000A76A36EE656A06EE057A9FED326A76EE2B
:10B22000877A17EE901A194007EE901A77EEE66AC1
:10B2300027EE866A37EE667ADFED2B6A2B4967EEDA
:10B24000A67ADFED2B6A47EE267A01EB800191EDBD
:10B25000007A77EE877A07EE102A264A02EB800200
:10B26000D2ED005A76EE276AB8EEC77A76EEA56A76
:10B2700076EE876A16EE902A134006EE903A36EE86
:10B28000C77A37EE657A37EE467A77EEC77A4BE6BD
:10B29000000080FF0072313F4CBB31330EEADD35D8
:10B2A0008CBEBF351872313F55B38A38610B363BBF
:10B2B000ABAA2A3E000000000000804B71C41C00B5
:10B2C000D6B35D00C89E060000F0FFFF55326C3E0D
:10B2D00042F1533E05A38B3EABAAAA3EB76DDB3EBF
:10B2E0009A99193F0038763FA0C39D36B89E060054
:10B2F0004F38763FC09E060001482EF0CBB800BF05
:10B300009803002001482EF0C5B800BF8803002034
:10B3100007B536F073FD4FF47A72A0FB020302FB0F
:10B320000131C00B074A40EA4140106000234FF44E
:10B3300000420548CDE900232EF08CFE002003B02A
:10B340005DF804FBB07C0020281D0020014B18781C
:10B3500000F0DCBB08BC0020044B1A78824202D00B
:10B360001870FFF7F3BF0020704700BF08BC002033
:10B3700008B536F043FD4FF47A72A0FB020302FBDE
:10B380000131084AC30B126843EA41439B1A47F252
:10B390003052934204DDBDE808400120FFF7DCBFD6
:10B3A00008BD00BFB07C002008B536F027FD4FF483
:10B3B0007A72A0FB020302FB0131C00B044A40EA8F
:10B3C00041401060BDE808400020FFF7C5BF00BF46
:10B3D000B07C0020014B1878704700BF08BC0020EB
:10B3E0002DE9F04F1C4D1D4CDFF878A0DFF878B048
:10B3F00083B0641BA40800AF0026A946B44204DC55
:10B4000000200C37BD46BDE8F08F0136B0464445FC
:10B4100001D10435F2E72B6859F828201B68116820
:10B420007B601846FCF7E2F97B6890B9C7F804D056
:10B4300088B06A46C2E905A34FF40073938342F8CB
:10B4400010BF4FF4E2510346054808F0F3FDD7F86A
:10B4500004D008F10108DAE7203007001C310700AA
:10B460005C320600129F060003000001F8B5044696
:10B4700010B900252846F8BD0378002BF9D00F4EEF
:10B480000F4FBE420FD30D4EBE42F2D2306836F09F
:10B49000C6F830B1356821462868FCF7A7F90028BE
:10B4A000E8D00436F0E7306836F0B9F818B13568FE
:10B4B0002B68A342DED00436E3E700BF203007004C
:10B4C0001C31070082B02DE9F04F99B006AF07F1AB
:10B4D000700181E80C00164607C807F10C0585E8E5
:10B4E000070097F888A0D7F8749097F88080FFF746
:10B4F000BDFF8346C0B96C4688B006AA544BD661DE
:10B50000C2E90539042342F8103F4FF402510346C3
:10B51000504808F08FFDA546012420464C37BD4613
:10B52000BDE8F04F02B07047C7E91C6907F1700C25
:10B53000BCE80F0007F118040FC487F880809CE86E
:10B54000030084E80300C7E9066987F8288007F14B
:10B55000180EBEE80F0007F1300CACE80F0094E8BD
:10B5600003008CE80300F868FFF780FF83685C68DD
:10B5700007F1300CF4B107F1480313E90F00C7F8E5
:10B5800004D08DE80F0028469CE80C00A047044634
:10B5900080B188B006AA304BC2E90530032342F8D7
:10B5A000103F2C4800234FF4C25108F043FDD7F858
:10B5B00004D0B2E7DBF808301B78012B12D0022B45
:10B5C0002BD0002B41D187F88080C7E91C6907F197
:10B5D0007803CDF810A00FCB8DE80F0007F17003B2
:10B5E0000CCB10E0C7E91C6987F8808007F178036D
:10B5F000CDF810A00FCB8DE80F00B8F1FF0F07F1C9
:10B6000070030CCB03D128462FF02DFA03E0294616
:10B61000404606F0FFFF04467FE7C7E91C6987F84C
:10B62000808007F17804CDF810A094E80F008DE831
:10B630000F0007F170030CCB2946002006F0EAFF4B
:10B64000CDF810A094E80F00C6E76FF0850464E71A
:10B650003D9F06005C320600649F06001FB50A4C41
:10B660002468A46884420DD183F00103CDE901125E
:10B67000039306480022002301A92DF06FFC044823
:10B680002DF008FF04B010BD5C7D0020901E00204E
:10B690004C7D00202DE9F04FDFF80081DFF80091AC
:10B6A000384E8DB002AF00220023391D40462DF0E8
:10B6B000ABFC834618B12C37BD46BDE8F08FD9F8F6
:10B6C0000030FC685868D7E901122FF020FA2E4BA1
:10B6D000002C18BF3346051ED7E9010115DA6C4668
:10B6E0008AB002AA294DC2E9071340F202439384AB
:10B6F000274BC2E9055042F8103F26485B464FF4FD
:10B70000325108F097FCA546CDE7EA468CB002AA74
:10B71000DFF890C0C2F814C09362DFF88CC040F22A
:10B72000046393851C4BC2E906C0C2E9081542F8C0
:10B73000103F18485B464FF47451B4FA84F408F093
:10B7400079FCFF236409D5463B747D613C7636F075
:10B7500055FB4FF47A72A0FB020302FB0131C00BD0
:10B7600040EA4140C90BC7E9080107F1280313E982
:10B7700003008DE8030007F110030FCB00F0E0F9A0
:10B7800091E700BFAA9F0600A59F0600B09F060094
:10B79000050000015C32060007000001901E002039
:10B7A0005C7D0020E69F06009AA006001FB50023DE
:10B7B000CDE90233044B8DF80C0001A801932FF062
:10B7C000CDF905B05DF804FB5C3506000268034B5B
:10B7D0009A420CBF08300020704700BF5C3506005D
:10B7E000014B036026207047B47C0020044B1A688C
:10B7F000044B9A4214BF6FF012000020704700BF44
:10B800005C7D002048350600F8B5054600AF0028ED
:10B8100038D01E4E3368834232D02BB1986818B1AD
:10B8200083685B6803B1984719491A4B8D4214BF6E
:10B83000ED210021262200202FF083F9041E12DAC8
:10B840006D4688B06A46144BC2E90534032342F8BA
:10B85000103F124800234FF4C25108F0EBFBAD46F5
:10B860002046BD46F8BDA868356048B183680C49DC
:10B870001B6898473368986883689B6803B198474A
:10B880000024EDE76FF01204EAE700BF5C7D0020C2
:10B8900048350600B47C002016A006005C32060085
:10B8A0005DB6020038B5054648B90648FFF7ACFF5B
:10B8B000041E02DB2846FFF779FF204638BD6FF0F3
:10B8C0001504FAE748350600B0B5104D034600AF41
:10B8D0000846012229469847041E12DC6D4688B0AE
:10B8E0006A460B4BC2E90534032342F8103F09486E
:10B8F00000234FF4C25108F09DFBAD462046BD46E3
:10B90000B0BD2878FFF7CEFF0446F7E7061C0020FD
:10B910004BA006005C32060073B50E4614460A4979
:10B9200001AA1D4631F0ECF838B1019B3BB9012E5C
:10B9300007D129462046FFF7C7FF02B070BD00209F
:10B94000FBE76FF01500F8E791A006000148FFF74C
:10B950005BBF00BF4835060008B50749074836F009
:10B960007DF8074A002342F8043B0133262BFAD125
:10B97000BDE80840FFF7EABF95B602004C7D002005
:10B98000B47C00202DE9F843274E284BA3EB060892
:10B9900000AF81460D4606EBC106C8F3C708A845AF
:10B9A00024DD3268D9F800309A420BD189F804506E
:10B9B000736848461B6898470128044605D002284A
:10B9C00019D0E8B901350836E9E76C4688B06A460F
:10B9D000174B5361174B9361032342F8103F1648EE
:10B9E00000234FF4C85108F025FBA546002420464B
:10B9F000BD46BDE8F8836C4688B06A460F4BE8E761
:10BA00006D4688B06A460E4B53610A4BC2E9063058
:10BA1000042342F8103F084800234FF4045108F073
:10BA200009FBAD46E3E700BF540D0700CC0D07004E
:10BA300001A10600BBA106005C32060020A10600A1
:10BA400040A1060070B5144B144CE41A86B00022D5
:10BA5000C4F3C70494420EDC114B059302230493F4
:10BA60001048002304AA4FF4845108F0E3FA6FF061
:10BA7000150006B070BD1E680568AE4202F10102F5
:10BA800008D15D688D4205D1D1B206B0BDE87040E5
:10BA9000FFF778BF0833DDE7540D0700CC0D070032
:10BAA00063A106005C32060070B5144B144AD21A2A
:10BAB00086B00024C2F3C702A2420EDC114B0593EC
:10BAC000022304931048002304AA4FF4845108F081
:10BAD000B1FA6FF0150006B070BD1E680568AE4281
:10BAE00008D15D688D4205D1E1B206B0BDE8704075
:10BAF000FFF748BF01340833DEE700BF540D0700ED
:10BB0000CC0D070092A106005C3206001FB5002391
:10BB1000CDE90233044B8DF80C0001A801932FF0FE
:10BB20001DF805B05DF804FB603506000268034BA4
:10BB30009A420CBF08300020704700BF60350600F5
:10BB400084B030B589B00CAC84E80F0000230193B9
:10BB50000CAD084B00930FCD02AC0FC495E8030069
:10BB600084E8030068462EF0F9FF09B0BDE83040D4
:10BB700004B07047643506000268034B9A420CBF5C
:10BB800008300020704700BF6435060084B030B52F
:10BB90008BB00EAC84E80F00002301930EAD084B70
:10BBA00000930FCD02AC0FC495E80F0084E80F009E
:10BBB00068462EF0D3FF0BB0BDE8304004B07047AC
:10BBC000683506001FB50023CDE90233044B8DF81C
:10BBD0000C0001A801932EF0C1FF05B05DF804FB35
:10BBE0006C35060080B500AF88B06A46074BC2E9E5
:10BBF0000530032342F8103F054800234FF4C2519B
:10BC000008F018FA6FF00400BD4680BD4DA2060092
:10BC10005C32060082B010B502A981E80C0004462F
:10BC20000C482CF0D7FE28B96068BDE8104002B07F
:10BC3000FFF7D8BF6368022B06D12EF0BEFF0028A5
:10BC4000CCBF002001206060BDE81040002002B0A1
:10BC5000704700BF75A2060082B0B0B500AF07F113
:10BC6000100181E80C0005461F482CF0B3FE6B68FC
:10BC70000446B0B96D4688B06A461C49C2E905134E
:10BC8000032342F8103F4FF4C2510346184808F00E
:10BC9000D1F96FF00400AD46BD46BDE8B04002B03A
:10BCA0007047012B0AD0022B03D053B92EF07EFF30
:10BCB000F2E72EF082FF00282046F7DC2EF06FFF1F
:10BCC000EAE76C4688B06A460A49C2E905130323CD
:10BCD00042F8103F064800234FF4C25108F0AAF979
:10BCE0006FF08500A546D7E775A206004DA20600B5
:10BCF0005C3206007FA206002DE9F04F89B002AF4A
:10BD00000025F860884693461E462C46D8F8003039
:10BD10009D4201D300204FE0D8F80430BB6003EB14
:10BD2000051999F80C30002B41D0DBF8043004F1F0
:10BD3000010A13EBC4040DD07379022B38D1F388B8
:10BD4000082B35D8DFE803F00605343434343134B9
:10BD50002F000234C7F804D088B002AA184B5361F0
:10BD6000184B9361FB68D361042342F8103F1648D7
:10BD700000234FF4045108F05DF9FB683B742A017D
:10BD8000BB687C619858D7F804D0D9E90123816851
:10BD90000C687CB107F1100100913146A04758B9F9
:10BDA00001355446B2E70434D4E70634D2E7A2465C
:10BDB0000024CFE76FF085001C37BD46BDE8F08F4B
:10BDC000A6A20600E1A206005C3206002DE9F04FB3
:10BDD00083B0136800AF06460C461546002B5ED0B4
:10BDE00000F1180801F118024FF0000AF3689A45B3
:10BDF0001DD331462B4611F8040B04F11002FFF756
:10BE00007BFF00284EDA6C4688B06A46604BC2E978
:10BE10000530032342F8103F5E4800234FF4C2511F
:10BE200008F008F9A5460C37BD46BDE8F08F58F874
:10BE3000089C4FF0000BB9F1000F05D10AF1010A7F
:10BE400008F110080832D1E719F0010F04D14FEAC8
:10BE500059090BF1010BEEE75FFA8BF07A6003F002
:10BE6000CBFC7A680028F2D030782B464146FFF7A9
:10BE700043FF0028C7DB18F8043C7A68002BE6D1A2
:10BE80006B79012B59D0022B15D1EB88082B12D8D6
:10BE9000DFE803F00B3E111111114C1145006FF05A
:10BEA0001200B0E70128EBD1BDE701232370AB6896
:10BEB0006288134463802B79002BB4D0A379012BC3
:10BEC00005D1B4F90A10B4F9080000F057FB237843
:10BED000012B05D1B4F90410B4F9020000F02EFBD7
:10BEE000237B002B3CD1637B002B45D103F004FA6C
:10BEF0000021084600F042FB0021084600F01EFB2E
:10BF00000023A38063802370A371A360A3818AE7C9
:10BF100001232370AB68A2881344A380CBE70123DD
:10BF2000A371AB68628913446381C4E70123A371E1
:10BF3000AB68228913442381BDE7EA88A2F58071AA
:10BF40000429B8D852B29340AA68002ACCBF227BF9
:10BF5000627BDBB2CBBF1343134323736373AAE744
:10BF60000025237BEB40DA0702D5A8B200F022FAC5
:10BF70000135052DF5D1B6E70025637BEB40DB07E6
:10BF800002D5A8B200F060FA0135052DF5D1ADE774
:10BF9000BDA206005C320600024602490248FFF7D5
:10BFA00015BF00BF907D0020C8350600024602493B
:10BFB0000248FFF70BBF00BF787D0020B8350600B0
:10BFC000024602490248FFF701BF00BF607D002022
:10BFD000A8350600014B1878704700BF0CBC002044
:10BFE0002DE9F041214A52F8203000AF0133E846F4
:10BFF0008AB042F8203006466A461D4C1D4D136239
:10C000001D4951610523C2E906404FF4245142F80D
:10C01000103F28462EF0DEFD184A01231178B34068
:10C020000B43DBB21370164A164E127823EA020352
:10C03000154A1278C546134388B096F8018073708C
:10C040006A461249D3610423C2E90514284642F81E
:10C05000103F4FF404512EF0BDFD7078B0EB080096
:10C0600018BF0120BD46BDE8F08100BFBC7D0020A7
:10C070003DA506005C320600EEA206000CBC0020C6
:10C080000ABC00201E1C00200BBC002007A30600D9
:10C090002DE9F041DFF8FC8058F82030002B00AF8C
:10C0A000044613DC6D4688B06A46314BC2E9053060
:10C0B0000323304842F8103F4FF4C2512EF08AFD5E
:10C0C0006FF01500AD46BD46BDE8F081013B6E4600
:10C0D0008AB048F820306A46274D136227495161DB
:10C0E0000523C2E906504FF4245142F8103F21487D
:10C0F0002EF070FD58F82430DFF89C80B546B3B9B7
:10C1000088B06A461E4BD461C2E90535042342F863
:10C11000103F18484FF404512EF05CFD012298F8AE
:10C120000030A24023EA0203B54688F80030154BE0
:10C13000154E1A7898F80030747823EA0203134AEF
:10C140001278E846134388B073706A461049D36189
:10C150000423C2E90515074842F8103F4FF4045183
:10C160002EF038FD7078001BC54618BF0120AAE7E5
:10C1700023A306005C32060026A506004DA3060098
:10C1800067A306000ABC00201E1C00200BBC002078
:10C1900007A30600BC7D00200CBC0020044A01233C
:10C1A00012788340D8B213401B1A58425841704746
:10C1B0000CBC0020B0B5114B114C1870114B6578B8
:10C1C0001A78114B1B7823EA020300AF184388B09A
:10C1D00060706A460D4B53610D4BC2E90630042373
:10C1E00042F8103F0B484FF404512EF0F3FC6078F6
:10C1F000401B18BF0120BD46B0BD00BF0BBC0020D6
:10C200001E1C00200ABC00200CBC002007A3060056
:10C2100005A506005C320600B0B5114B114C00229A
:10C220001A70114B65781A78104B1B7800AF23EA0F
:10C23000020388B063706A460D4951610D490E488A
:10C24000C2E90613042342F8103F4FF404512EF0C4
:10C25000C1FC6078401B18BF0120BD46B0BD00BFC7
:10C260000BBC00201E1C00200ABC00200CBC0020BF
:10C2700007A30600E2A406005C320600A0F1E0037A
:10C28000072B03D82030C0B2FFF7AABE064B062208
:10C2900013F8011F19B1013AFAD100207047187044
:10C2A0000028F8D0F9E700BF201C0020A0F1E0032F
:10C2B000072B10B405D820305DF8044BC0B2FFF74F
:10C2C000E7BE0023064A194612F8014F0133A04287
:10C2D00008BF1170062BF7D100205DF8044B7047A2
:10C2E000201C0020A0F1E003072B03D82030C0B2AF
:10C2F000FFF754BF064A002312F8011F884204D0FA
:10C300000133062BF8D1002070470120704700BF91
:10C31000201C0020024B00221A605A60704700BFA8
:10C320001F1C0020B0F5805F10B510D20949002312
:10C3300001EB4302B2F8014024B10133062BF7D1DF
:10C34000002010BDA2F801000028F6D0F8E76FF039
:10C350008500F6E7111C002030B50023074C194674
:10C3600004EB43020133B2F80150854204BF51701F
:10C370009170062BF4D1002030BD00BF111C0020AD
:10C38000024B00221A605A609A607047121C00200B
:10C39000074A002302EB4301B1F80110814204D0A7
:10C3A0000133062BF6D1002070470120704700BFF3
:10C3B000111C0020F8B5042800AF064632D81B4AED
:10C3C00052F820306C4601338AB042F820306A4679
:10C3D000174D1362174951610523C2E906504FF406
:10C3E000245142F8103F14482EF0F4FB134B012067
:10C3F0001A78B0401043C0B2A5461870104B88B0F0
:10C4000058706A460F4BD061C2E9053504230A48CB
:10C4100042F8103F4FF404512EF0DCFB0020A546FB
:10C42000BD46F8BD6FF01500FAE700BFA87D0020FB
:10C43000C7A4060080A306005C32060009BC0020E9
:10C44000071C002097A306002DE9F041042800AF47
:10C45000044614D8DFF8DC8058F82030002B13DCB9
:10C460006D4688B06A462C4BC2E90530032342F87A
:10C47000103F2A484FF4C2512EF0ACFBAD466FF08E
:10C480001500BD46BDE8F081013B6E468AB048F814
:10C4900020306A46224D1362224951610523C2E9C8
:10C4A00006504FF4245142F8103F1C482EF092FBE6
:10C4B00058F82430DFF88080B546B3B988B06A46B2
:10C4C000194BD461C2E90535042342F8103F1348E3
:10C4D0004FF404512EF07EFB012298F80030A24068
:10C4E00023EA0203B54688F80030104A98F8003075
:10C4F00053706C4688B06A460D49D3610423C2E983
:10C500000515064842F8103F4FF404512EF062FB27
:10C510000020A546B5E700BFB7A306005C320600C1
:10C52000AAA40600DCA30600F4A30600071C002052
:10C5300097A30600A87D002009BC002080B50B4B06
:10C5400000AF8AB0588099806A46094B5361094B05
:10C550001162C2E90630052342F8103F06484FF445
:10C5600024512EF037FBBD4680BD00BF071C0020C4
:10C570000BA406008FA406005C32060080B50B4BAE
:10C5800000AF8AB01881D9806A46094B5361094BC4
:10C590001162C2E90630052342F8103F06484FF405
:10C5A00024512EF017FBBD4680BD00BF071C0020A4
:10C5B0002BA4060076A406005C32060080B500AF0E
:10C5C00088B06A46094B5361094B9361032342F8D3
:10C5D000103F08484FF4C8512EF0FCFA064B0022D9
:10C5E0001A605A601A72BD4680BD00BF49A4060099
:10C5F00062A406005C320600081C00200048704758
:10C600001E1C002000487047111C00200048704785
:10C61000071C002082B0B0B500AF07F1100181E81F
:10C620000C006D468AB07969436804466A460D4835
:10C6300050610D4813620523C2E9060142F8103F1C
:10C640000A4800234FF4245107F0F4FC0021D7E9F5
:10C6500006236068AD462EF00EFBBD46BDE8B04037
:10C6600002B0704752A506008BA506005C3206009A
:10C6700082B0B0B500AF07F1100181E80C006D4643
:10C680008AB07969436804466A460D4850610D488E
:10C6900013620523C2E9060142F8103F0A4800234D
:10C6A0004FF4245107F0C6FC0121D7E90623606846
:10C6B000AD462EF0E0FABD46BDE8B04002B070478E
:10C6C00052A5060071A506005C3206002DE9F04176
:10C6D0000B4E337883B10B4CDFF82C80002542F2EF
:10C6E0000F7720464146013535F0FCF90A2D44F814
:10C6F000207C04F15804F4D100203070BDE8F081B2
:10C70000271C0020B8280020F3AD050030B5C26911
:10C71000037ED17D91B0044609B1032B39D0023B91
:10C72000012B517D07D8002933D1204611B0BDE837
:10C7300030402EF030BB21B1937D13B920462EF04E
:10C74000CCFA0AAD18220021284635F042FD2379A3
:10C750008DF838300023CDE907330993E369226867
:10C760009B680793D4E90401E36808930A4B0B9292
:10C77000CDE90C01C3E902011A600123049310AB57
:10C7800013E90F008DE80F0007A895E80C00FEF7ED
:10C7900099FE11B030BD00BF000000200B4A30B53B
:10C7A00000230446282000FB03F18D18515C41B999
:10C7B0000FCC0FC50FCC0FC594E8030085E803002C
:10C7C00030BD0133282BEED1FAE700BF58220020FC
:10C7D0002DE9F04F8D4E87B03568854200AF044695
:10C7E00013D06C4688B06A46894B5361894B93617C
:10C7F000032342F8103F88484FF4C8512EF06AFADC
:10C80000A5461C37BD46BDE8F08FEB695A7DB2B135
:10C81000A9B96C4688B02B686A46804951617D4948
:10C820007D48C2E90613042342F8103F4FF4045137
:10C830002EF050FA2846A5462EF0ADFAE1E71A7D13
:10C84000032A27D8DFE802F0020E1EBE4A1E042A81
:10C8500020D8DFE802F01D031F051D00022218E0AA
:10C86000032216E04A1E042A14D801A050F822F030
:10C8700091C8020095C802005DC8020061C80200AC
:10C8800091C802000429EBD001F0FB02012A01D17A
:10C8900001222276227E002AB3D0D869002810DD3A
:10C8A000D4F854C0BCF1FF3F0BD003F11C050022AB
:10C8B00055F804EFE64504D001329042F8D1012248
:10C8C0002276227E1B7DD4F800E0032A96BF5448CE
:10C8D000DFF85CC150F822C0032B96BF514A524882
:10C8E00052F823000139C9B2042996BF4F4B504B6F
:10C8F00053F821306D468EB06A464E495161454924
:10C900009362C2E9061E4C49396040F20461B98065
:10C91000C2E908C0D7E90001484BD06211863E4801
:10C9200042F8103F4FF48A412EF0D4F90023AD466F
:10C9300020463360FFF7EAFE3568002D7FF461AFD3
:10C940003F4CDFF81481DFF81491DFF814A114F8DC
:10C9500008BCBBF1000F3FF454AF002304F8083CBF
:10C96000336823B14FF4A47000212DF0F7F8BBF128
:10C97000010F32D0BBF1020F3BD1A27CE168EB4644
:10C980008AB0002A0CBF43464B466A462D48506188
:10C9900013622D4840F2024393842C4BC2E90601F6
:10C9A0001D4842F8103F4FF434512EF093F92849B6
:10C9B000DD462046FFF778F80135282D04F12804DC
:10C9C000C5D11EE702293FF449AF01D801295EE72E
:10C9D0000A1F012A7FF65CAF5CE7227CE168EB4628
:10C9E0008AB0002A0CBF43464B466A46C2F814A0E0
:10C9F000CEE7184B7B61022307483B6107F1100229
:10CA00004FF482512EF066F9D6E700BFDC7D00209E
:10CA1000C4A5060019AB06005C32060007A6060096
:10CA20000436060014360600B5A50600F0350600EB
:10CA3000A6A5060034A606000204030507000003AD
:10CA4000602200205EA6060001AB06000500000182
:10CA5000DC370600BDA6060002A40600F3B60600F9
:10CA600089A6060082B02DE9F04F87B000AF07F12C
:10CA7000400181E80C00534DD7F84480002458232E
:10CA800003FB04F046192A5890456CD12030284405
:10CA900035F036F8F3691968D6E904238A1843EBB0
:10CAA000E173B96C8A42FA6C9341814603DA04213E
:10CAB00030462EF099F94FF0580A0AFB04FA05EBBC
:10CAC0000A0B012130462EF08FF9DBF81C30DB7D9C
:10CAD000FBB19BF81830032B1BD130462EF025F903
